{
  "_format": "hh-sol-artifact-1",
  "contractName": "MockSpender",
  "sourceName": "contracts/MockSpender.sol",
  "abi": [
    {
      "inputs": [],
      "stateMutability": "nonpayable",
      "type": "constructor"
    },
    {
      "anonymous": false,
      "inputs": [
        {
          "indexed": true,
          "internalType": "address",
          "name": "nft",
          "type": "address"
        },
        {
          "indexed": true,
          "internalType": "address",
          "name": "owner",
          "type": "address"
        },
        {
          "indexed": false,
          "internalType": "bool",
          "name": "approved",
          "type": "bool"
        }
      ],
      "name": "ERC1155Approved",
      "type": "event"
    },
    {
      "anonymous": false,
      "inputs": [
        {
          "indexed": true,
          "internalType": "address",
          "name": "token",
          "type": "address"
        },
        {
          "indexed": true,
          "internalType": "address",
          "name": "owner",
          "type": "address"
        },
        {
          "indexed": false,
          "internalType": "uint256",
          "name": "amount",
          "type": "uint256"
        }
      ],
      "name": "ERC20Approved",
      "type": "event"
    },
    {
      "anonymous": false,
      "inputs": [
        {
          "indexed": true,
          "internalType": "address",
          "name": "nft",
          "type": "address"
        },
        {
          "indexed": true,
          "internalType": "address",
          "name": "owner",
          "type": "address"
        },
        {
          "indexed": false,
          "internalType": "bool",
          "name": "approved",
          "type": "bool"
        }
      ],
      "name": "ERC721Approved",
      "type": "event"
    },
    {
      "inputs": [
        {
          "internalType": "address",
          "name": "nft",
          "type": "address"
        },
        {
          "internalType": "address",
          "name": "operator",
          "type": "address"
        },
        {
          "internalType": "bool",
          "name": "approved",
          "type": "bool"
        }
      ],
      "name": "approveERC1155",
      "outputs": [],
      "stateMutability": "nonpayable",
      "type": "function"
    },
    {
      "inputs": [
        {
          "internalType": "address",
          "name": "token",
          "type": "address"
        },
        {
          "internalType": "address",
          "name": "spender",
          "type": "address"
        },
        {
          "internalType": "uint256",
          "name": "amount",
          "type": "uint256"
        }
      ],
      "name": "approveERC20",
      "outputs": [],
      "stateMutability": "nonpayable",
      "type": "function"
    },
    {
      "inputs": [
        {
          "internalType": "address",
          "name": "nft",
          "type": "address"
        },
        {
          "internalType": "address",
          "name": "operator",
          "type": "address"
        },
        {
          "internalType": "bool",
          "name": "approved",
          "type": "bool"
        }
      ],
      "name": "approveERC721",
      "outputs": [],
      "stateMutability": "nonpayable",
      "type": "function"
    },
    {
      "inputs": [
        {
          "internalType": "address",
          "name": "nft",
          "type": "address"
        },
        {
          "internalType": "address",
          "name": "operator",
          "type": "address"
        }
      ],
      "name": "checkERC1155Approval",
      "outputs": [
        {
          "internalType": "bool",
          "name": "",
          "type": "bool"
        }
      ],
      "stateMutability": "view",
      "type": "function"
    },
    {
      "inputs": [
        {
          "internalType": "address",
          "name": "token",
          "type": "address"
        },
        {
          "internalType": "address",
          "name": "spender",
          "type": "address"
        }
      ],
      "name": "checkERC20Allowance",
      "outputs": [
        {
          "internalType": "uint256",
          "name": "",
          "type": "uint256"
        }
      ],
      "stateMutability": "view",
      "type": "function"
    },
    {
      "inputs": [
        {
          "internalType": "address",
          "name": "nft",
          "type": "address"
        },
        {
          "internalType": "address",
          "name": "operator",
          "type": "address"
        }
      ],
      "name": "checkERC721Approval",
      "outputs": [
        {
          "internalType": "bool",
          "name": "",
          "type": "bool"
        }
      ],
      "stateMutability": "view",
      "type": "function"
    },
    {
      "inputs": [],
      "name": "owner",
      "outputs": [
        {
          "internalType": "address",
          "name": "",
          "type": "address"
        }
      ],
      "stateMutability": "view",
      "type": "function"
    }
  ],
  "bytecode": "0x6080604052348015600f57600080fd5b50336000806101000a81548173ffffffffffffffffffffffffffffffffffffffff021916908373ffffffffffffffffffffffffffffffffffffffff160217905550610bb38061005f6000396000f3fe608060405234801561001057600080fd5b506004361061007d5760003560e01c8063a8e5e4aa1161005b578063a8e5e4aa14610100578063c4e22d521461011c578063d88c869b1461014c578063e02b94bc146101685761007d565b8063574b4c651461008257806363dde699146100b25780638da5cb5b146100e2575b600080fd5b61009c6004803603810190610097919061082f565b610184565b6040516100a9919061088a565b60405180910390f35b6100cc60048036038101906100c7919061082f565b61020a565b6040516100d9919061088a565b60405180910390f35b6100ea610290565b6040516100f791906108b4565b60405180910390f35b61011a60048036038101906101159190610905565b6102b4565b005b6101366004803603810190610131919061082f565b610446565b6040516101439190610967565b60405180910390f35b610166600480360381019061016191906109ae565b6104cc565b005b610182600480360381019061017d91906109ae565b61064c565b005b60008273ffffffffffffffffffffffffffffffffffffffff1663e985e9c533846040518363ffffffff1660e01b81526004016101c1929190610a01565b602060405180830381865afa1580156101de573d6000803e3d6000fd5b505050506040513d601f19601f820116820180604052508101906102029190610a3f565b905092915050565b60008273ffffffffffffffffffffffffffffffffffffffff1663e985e9c533846040518363ffffffff1660e01b8152600401610247929190610a01565b602060405180830381865afa158015610264573d6000803e3d6000fd5b505050506040513d601f19601f820116820180604052508101906102889190610a3f565b905092915050565b60008054906101000a900473ffffffffffffffffffffffffffffffffffffffff1681565b600073ffffffffffffffffffffffffffffffffffffffff168373ffffffffffffffffffffffffffffffffffffffff161415801561031e5750600073ffffffffffffffffffffffffffffffffffffffff168273ffffffffffffffffffffffffffffffffffffffff1614155b61035d576040517f08c379a000000000000000000000000000000000000000000000000000000000815260040161035490610ac9565b60405180910390fd5b8273ffffffffffffffffffffffffffffffffffffffff1663095ea7b383836040518363ffffffff1660e01b8152600401610398929190610ae9565b6020604051808303816000875af11580156103b7573d6000803e3d6000fd5b505050506040513d601f19601f820116820180604052508101906103db9190610a3f565b503373ffffffffffffffffffffffffffffffffffffffff168373ffffffffffffffffffffffffffffffffffffffff167fe285444a44723385de85da4844cbb9105030b82a9300a3ffca99054d624c5e30836040516104399190610967565b60405180910390a3505050565b60008273ffffffffffffffffffffffffffffffffffffffff1663dd62ed3e33846040518363ffffffff1660e01b8152600401610483929190610a01565b602060405180830381865afa1580156104a0573d6000803e3d6000fd5b505050506040513d601f19601f820116820180604052508101906104c49190610b27565b905092915050565b600073ffffffffffffffffffffffffffffffffffffffff168373ffffffffffffffffffffffffffffffffffffffff16141580156105365750600073ffffffffffffffffffffffffffffffffffffffff168273ffffffffffffffffffffffffffffffffffffffff1614155b610575576040517f08c379a000000000000000000000000000000000000000000000000000000000815260040161056c90610ac9565b60405180910390fd5b8273ffffffffffffffffffffffffffffffffffffffff1663a22cb46583836040518363ffffffff1660e01b81526004016105b0929190610b54565b600060405180830381600087803b1580156105ca57600080fd5b505af11580156105de573d6000803e3d6000fd5b505050503373ffffffffffffffffffffffffffffffffffffffff168373ffffffffffffffffffffffffffffffffffffffff167ff7f0f078848f27bd6bdf2b43e3dd43f4af481848aeba9d89e16df65b861402fe8360405161063f919061088a565b60405180910390a3505050565b600073ffffffffffffffffffffffffffffffffffffffff168373ffffffffffffffffffffffffffffffffffffffff16141580156106b65750600073ffffffffffffffffffffffffffffffffffffffff168273ffffffffffffffffffffffffffffffffffffffff1614155b6106f5576040517f08c379a00000000000000000000000000000000000000000000000000000000081526004016106ec90610ac9565b60405180910390fd5b8273ffffffffffffffffffffffffffffffffffffffff1663a22cb46583836040518363ffffffff1660e01b8152600401610730929190610b54565b600060405180830381600087803b15801561074a57600080fd5b505af115801561075e573d6000803e3d6000fd5b505050503373ffffffffffffffffffffffffffffffffffffffff168373ffffffffffffffffffffffffffffffffffffffff167f4cb534b21466cad791a2caf6e52051963bc1a4d3be4e73e82dd5191b14241336836040516107bf919061088a565b60405180910390a3505050565b600080fd5b600073ffffffffffffffffffffffffffffffffffffffff82169050919050565b60006107fc826107d1565b9050919050565b61080c816107f1565b811461081757600080fd5b50565b60008135905061082981610803565b92915050565b60008060408385031215610846576108456107cc565b5b60006108548582860161081a565b92505060206108658582860161081a565b9150509250929050565b60008115159050919050565b6108848161086f565b82525050565b600060208201905061089f600083018461087b565b92915050565b6108ae816107f1565b82525050565b60006020820190506108c960008301846108a5565b92915050565b6000819050919050565b6108e2816108cf565b81146108ed57600080fd5b50565b6000813590506108ff816108d9565b92915050565b60008060006060848603121561091e5761091d6107cc565b5b600061092c8682870161081a565b935050602061093d8682870161081a565b925050604061094e868287016108f0565b9150509250925092565b610961816108cf565b82525050565b600060208201905061097c6000830184610958565b92915050565b61098b8161086f565b811461099657600080fd5b50565b6000813590506109a881610982565b92915050565b6000806000606084860312156109c7576109c66107cc565b5b60006109d58682870161081a565b93505060206109e68682870161081a565b92505060406109f786828701610999565b9150509250925092565b6000604082019050610a1660008301856108a5565b610a2360208301846108a5565b9392505050565b600081519050610a3981610982565b92915050565b600060208284031215610a5557610a546107cc565b5b6000610a6384828501610a2a565b91505092915050565b600082825260208201905092915050565b7f496e76616c696420616464726573730000000000000000000000000000000000600082015250565b6000610ab3600f83610a6c565b9150610abe82610a7d565b602082019050919050565b60006020820190508181036000830152610ae281610aa6565b9050919050565b6000604082019050610afe60008301856108a5565b610b0b6020830184610958565b9392505050565b600081519050610b21816108d9565b92915050565b600060208284031215610b3d57610b3c6107cc565b5b6000610b4b84828501610b12565b91505092915050565b6000604082019050610b6960008301856108a5565b610b76602083018461087b565b939250505056fea26469706673582212200b690d8b397a0549416bae7d50efef0ae0713f82751c1975b790da3ede0cb91864736f6c634300081c0033",
  "linkReferences": {},
  "deployedLinkReferences": {}
}