{
  "_format": "hh-sol-artifact-1",
  "contractName": "TestNFT",
  "sourceName": "contracts/TestNFT.sol",
  "abi": [
    {
      "inputs": [],
      "stateMutability": "nonpayable",
      "type": "constructor"
    },
    {
      "inputs": [
        {
          "internalType": "address",
          "name": "sender",
          "type": "address"
        },
        {
          "internalType": "uint256",
          "name": "tokenId",
          "type": "uint256"
        },
        {
          "internalType": "address",
          "name": "owner",
          "type": "address"
        }
      ],
      "name": "ERC721IncorrectOwner",
      "type": "error"
    },
    {
      "inputs": [
        {
          "internalType": "address",
          "name": "operator",
          "type": "address"
        },
        {
          "internalType": "uint256",
          "name": "tokenId",
          "type": "uint256"
        }
      ],
      "name": "ERC721InsufficientApproval",
      "type": "error"
    },
    {
      "inputs": [
        {
          "internalType": "address",
          "name": "approver",
          "type": "address"
        }
      ],
      "name": "ERC721InvalidApprover",
      "type": "error"
    },
    {
      "inputs": [
        {
          "internalType": "address",
          "name": "operator",
          "type": "address"
        }
      ],
      "name": "ERC721InvalidOperator",
      "type": "error"
    },
    {
      "inputs": [
        {
          "internalType": "address",
          "name": "owner",
          "type": "address"
        }
      ],
      "name": "ERC721InvalidOwner",
      "type": "error"
    },
    {
      "inputs": [
        {
          "internalType": "address",
          "name": "receiver",
          "type": "address"
        }
      ],
      "name": "ERC721InvalidReceiver",
      "type": "error"
    },
    {
      "inputs": [
        {
          "internalType": "address",
          "name": "sender",
          "type": "address"
        }
      ],
      "name": "ERC721InvalidSender",
      "type": "error"
    },
    {
      "inputs": [
        {
          "internalType": "uint256",
          "name": "tokenId",
          "type": "uint256"
        }
      ],
      "name": "ERC721NonexistentToken",
      "type": "error"
    },
    {
      "anonymous": false,
      "inputs": [
        {
          "indexed": true,
          "internalType": "address",
          "name": "owner",
          "type": "address"
        },
        {
          "indexed": true,
          "internalType": "address",
          "name": "approved",
          "type": "address"
        },
        {
          "indexed": true,
          "internalType": "uint256",
          "name": "tokenId",
          "type": "uint256"
        }
      ],
      "name": "Approval",
      "type": "event"
    },
    {
      "anonymous": false,
      "inputs": [
        {
          "indexed": true,
          "internalType": "address",
          "name": "owner",
          "type": "address"
        },
        {
          "indexed": true,
          "internalType": "address",
          "name": "operator",
          "type": "address"
        },
        {
          "indexed": false,
          "internalType": "bool",
          "name": "approved",
          "type": "bool"
        }
      ],
      "name": "ApprovalForAll",
      "type": "event"
    },
    {
      "anonymous": false,
      "inputs": [
        {
          "indexed": true,
          "internalType": "address",
          "name": "from",
          "type": "address"
        },
        {
          "indexed": true,
          "internalType": "address",
          "name": "to",
          "type": "address"
        },
        {
          "indexed": true,
          "internalType": "uint256",
          "name": "tokenId",
          "type": "uint256"
        }
      ],
      "name": "Transfer",
      "type": "event"
    },
    {
      "inputs": [
        {
          "internalType": "address",
          "name": "to",
          "type": "address"
        },
        {
          "internalType": "uint256",
          "name": "tokenId",
          "type": "uint256"
        }
      ],
      "name": "approve",
      "outputs": [],
      "stateMutability": "nonpayable",
      "type": "function"
    },
    {
      "inputs": [
        {
          "internalType": "address",
          "name": "owner",
          "type": "address"
        }
      ],
      "name": "balanceOf",
      "outputs": [
        {
          "internalType": "uint256",
          "name": "",
          "type": "uint256"
        }
      ],
      "stateMutability": "view",
      "type": "function"
    },
    {
      "inputs": [
        {
          "internalType": "uint256[]",
          "name": "tokenIds",
          "type": "uint256[]"
        }
      ],
      "name": "batchRevokeApprovals",
      "outputs": [],
      "stateMutability": "nonpayable",
      "type": "function"
    },
    {
      "inputs": [
        {
          "internalType": "uint256",
          "name": "tokenId",
          "type": "uint256"
        }
      ],
      "name": "getApproved",
      "outputs": [
        {
          "internalType": "address",
          "name": "",
          "type": "address"
        }
      ],
      "stateMutability": "view",
      "type": "function"
    },
    {
      "inputs": [
        {
          "internalType": "address",
          "name": "owner",
          "type": "address"
        },
        {
          "internalType": "address",
          "name": "operator",
          "type": "address"
        }
      ],
      "name": "isApprovedForAll",
      "outputs": [
        {
          "internalType": "bool",
          "name": "",
          "type": "bool"
        }
      ],
      "stateMutability": "view",
      "type": "function"
    },
    {
      "inputs": [],
      "name": "name",
      "outputs": [
        {
          "internalType": "string",
          "name": "",
          "type": "string"
        }
      ],
      "stateMutability": "view",
      "type": "function"
    },
    {
      "inputs": [
        {
          "internalType": "uint256",
          "name": "tokenId",
          "type": "uint256"
        }
      ],
      "name": "ownerOf",
      "outputs": [
        {
          "internalType": "address",
          "name": "",
          "type": "address"
        }
      ],
      "stateMutability": "view",
      "type": "function"
    },
    {
      "inputs": [
        {
          "internalType": "address",
          "name": "from",
          "type": "address"
        },
        {
          "internalType": "address",
          "name": "to",
          "type": "address"
        },
        {
          "internalType": "uint256",
          "name": "tokenId",
          "type": "uint256"
        }
      ],
      "name": "safeTransferFrom",
      "outputs": [],
      "stateMutability": "nonpayable",
      "type": "function"
    },
    {
      "inputs": [
        {
          "internalType": "address",
          "name": "from",
          "type": "address"
        },
        {
          "internalType": "address",
          "name": "to",
          "type": "address"
        },
        {
          "internalType": "uint256",
          "name": "tokenId",
          "type": "uint256"
        },
        {
          "internalType": "bytes",
          "name": "data",
          "type": "bytes"
        }
      ],
      "name": "safeTransferFrom",
      "outputs": [],
      "stateMutability": "nonpayable",
      "type": "function"
    },
    {
      "inputs": [
        {
          "internalType": "address",
          "name": "operator",
          "type": "address"
        },
        {
          "internalType": "bool",
          "name": "approved",
          "type": "bool"
        }
      ],
      "name": "setApprovalForAll",
      "outputs": [],
      "stateMutability": "nonpayable",
      "type": "function"
    },
    {
      "inputs": [
        {
          "internalType": "bytes4",
          "name": "interfaceId",
          "type": "bytes4"
        }
      ],
      "name": "supportsInterface",
      "outputs": [
        {
          "internalType": "bool",
          "name": "",
          "type": "bool"
        }
      ],
      "stateMutability": "view",
      "type": "function"
    },
    {
      "inputs": [],
      "name": "symbol",
      "outputs": [
        {
          "internalType": "string",
          "name": "",
          "type": "string"
        }
      ],
      "stateMutability": "view",
      "type": "function"
    },
    {
      "inputs": [
        {
          "internalType": "uint256",
          "name": "tokenId",
          "type": "uint256"
        }
      ],
      "name": "tokenURI",
      "outputs": [
        {
          "internalType": "string",
          "name": "",
          "type": "string"
        }
      ],
      "stateMutability": "view",
      "type": "function"
    },
    {
      "inputs": [
        {
          "internalType": "address",
          "name": "from",
          "type": "address"
        },
        {
          "internalType": "address",
          "name": "to",
          "type": "address"
        },
        {
          "internalType": "uint256",
          "name": "tokenId",
          "type": "uint256"
        }
      ],
      "name": "transferFrom",
      "outputs": [],
      "stateMutability": "nonpayable",
      "type": "function"
    }
  ],
  "bytecode": "0x608060405234801561001057600080fd5b506040518060400160405280600781526020017f546573744e4654000000000000000000000000000000000000000000000000008152506040518060400160405280600481526020017f544e465400000000000000000000000000000000000000000000000000000000815250816000908161008c9190610b70565b50806001908161009c9190610b70565b5050506100b03360016100d760201b60201c565b6100c13360026100d760201b60201c565b6100d23360036100d760201b60201c565b610cf1565b600073ffffffffffffffffffffffffffffffffffffffff168273ffffffffffffffffffffffffffffffffffffffff16036101495760006040517f64a0ae920000000000000000000000000000000000000000000000000000000081526004016101409190610c83565b60405180910390fd5b600061015d838360006101d660201b60201c565b9050600073ffffffffffffffffffffffffffffffffffffffff168173ffffffffffffffffffffffffffffffffffffffff16146101d15760006040517f73c6ac6e0000000000000000000000000000000000000000000000000000000081526004016101c89190610c83565b60405180910390fd5b505050565b6000806101e88461040260201b60201c565b9050600073ffffffffffffffffffffffffffffffffffffffff168373ffffffffffffffffffffffffffffffffffffffff16146102305761022f81848661043f60201b60201c565b5b600073ffffffffffffffffffffffffffffffffffffffff168173ffffffffffffffffffffffffffffffffffffffff16146102c75761027860008560008061050960201b60201c565b6001600360008373ffffffffffffffffffffffffffffffffffffffff1673ffffffffffffffffffffffffffffffffffffffff168152602001908152602001600020600082825403925050819055505b600073ffffffffffffffffffffffffffffffffffffffff168573ffffffffffffffffffffffffffffffffffffffff161461034a576001600360008773ffffffffffffffffffffffffffffffffffffffff1673ffffffffffffffffffffffffffffffffffffffff168152602001908152602001600020600082825401925050819055505b846002600086815260200190815260200160002060006101000a81548173ffffffffffffffffffffffffffffffffffffffff021916908373ffffffffffffffffffffffffffffffffffffffff160217905550838573ffffffffffffffffffffffffffffffffffffffff168273ffffffffffffffffffffffffffffffffffffffff167fddf252ad1be2c89b69c2b068fc378daa952ba7f163c4a11628f55a4df523b3ef60405160405180910390a4809150509392505050565b60006002600083815260200190815260200160002060009054906101000a900473ffffffffffffffffffffffffffffffffffffffff169050919050565b6104508383836106da60201b60201c565b61050457600073ffffffffffffffffffffffffffffffffffffffff168373ffffffffffffffffffffffffffffffffffffffff16036104c557806040517f7e2732890000000000000000000000000000000000000000000000000000000081526004016104bc9190610cad565b60405180910390fd5b81816040517f177e802f0000000000000000000000000000000000000000000000000000000081526004016104fb929190610cc8565b60405180910390fd5b505050565b80806105425750600073ffffffffffffffffffffffffffffffffffffffff168273ffffffffffffffffffffffffffffffffffffffff1614155b15610682576000610558846107a760201b60201c565b9050600073ffffffffffffffffffffffffffffffffffffffff168373ffffffffffffffffffffffffffffffffffffffff16141580156105c357508273ffffffffffffffffffffffffffffffffffffffff168173ffffffffffffffffffffffffffffffffffffffff1614155b80156105dc57506105da818461083560201b60201c565b155b1561061e57826040517fa9fbf51f0000000000000000000000000000000000000000000000000000000081526004016106159190610c83565b60405180910390fd5b811561068057838573ffffffffffffffffffffffffffffffffffffffff168273ffffffffffffffffffffffffffffffffffffffff167f8c5be1e5ebec7d5bd14f71427d1e84f3dd0314c0f7b2291e5b200ac8c7c3b92560405160405180910390a45b505b836004600085815260200190815260200160002060006101000a81548173ffffffffffffffffffffffffffffffffffffffff021916908373ffffffffffffffffffffffffffffffffffffffff16021790555050505050565b60008073ffffffffffffffffffffffffffffffffffffffff168373ffffffffffffffffffffffffffffffffffffffff161415801561079e57508273ffffffffffffffffffffffffffffffffffffffff168473ffffffffffffffffffffffffffffffffffffffff1614806107595750610758848461083560201b60201c565b5b8061079d57508273ffffffffffffffffffffffffffffffffffffffff166107858361084f60201b60201c565b73ffffffffffffffffffffffffffffffffffffffff16145b5b90509392505050565b6000806107b98361040260201b60201c565b9050600073ffffffffffffffffffffffffffffffffffffffff168173ffffffffffffffffffffffffffffffffffffffff160361082c57826040517f7e2732890000000000000000000000000000000000000000000000000000000081526004016108239190610cad565b60405180910390fd5b80915050919050565b6000610847838361088c60201b60201c565b905092915050565b60006004600083815260200190815260200160002060009054906101000a900473ffffffffffffffffffffffffffffffffffffffff169050919050565b6000600560008473ffffffffffffffffffffffffffffffffffffffff1673ffffffffffffffffffffffffffffffffffffffff16815260200190815260200160002060008373ffffffffffffffffffffffffffffffffffffffff1673ffffffffffffffffffffffffffffffffffffffff16815260200190815260200160002060009054906101000a900460ff16905092915050565b600081519050919050565b7f4e487b7100000000000000000000000000000000000000000000000000000000600052604160045260246000fd5b7f4e487b7100000000000000000000000000000000000000000000000000000000600052602260045260246000fd5b600060028204905060018216806109a157607f821691505b6020821081036109b4576109b361095a565b5b50919050565b60008190508160005260206000209050919050565b60006020601f8301049050919050565b600082821b905092915050565b600060088302610a1c7fffffffffffffffffffffffffffffffffffffffffffffffffffffffffffffffff826109df565b610a2686836109df565b95508019841693508086168417925050509392505050565b6000819050919050565b6000819050919050565b6000610a6d610a68610a6384610a3e565b610a48565b610a3e565b9050919050565b6000819050919050565b610a8783610a52565b610a9b610a9382610a74565b8484546109ec565b825550505050565b600090565b610ab0610aa3565b610abb818484610a7e565b505050565b5b81811015610adf57610ad4600082610aa8565b600181019050610ac1565b5050565b601f821115610b2457610af5816109ba565b610afe846109cf565b81016020851015610b0d578190505b610b21610b19856109cf565b830182610ac0565b50505b505050565b600082821c905092915050565b6000610b4760001984600802610b29565b1980831691505092915050565b6000610b608383610b36565b9150826002028217905092915050565b610b7982610920565b67ffffffffffffffff811115610b9257610b9161092b565b5b610b9c8254610989565b610ba7828285610ae3565b600060209050601f831160018114610bda5760008415610bc8578287015190505b610bd28582610b54565b865550610c3a565b601f198416610be8866109ba565b60005b82811015610c1057848901518255600182019150602085019450602081019050610beb565b86831015610c2d5784890151610c29601f891682610b36565b8355505b6001600288020188555050505b505050505050565b600073ffffffffffffffffffffffffffffffffffffffff82169050919050565b6000610c6d82610c42565b9050919050565b610c7d81610c62565b82525050565b6000602082019050610c986000830184610c74565b92915050565b610ca781610a3e565b82525050565b6000602082019050610cc26000830184610c9e565b92915050565b6000604082019050610cdd6000830185610c74565b610cea6020830184610c9e565b9392505050565b611f4780610d006000396000f3fe608060405234801561001057600080fd5b50600436106100ea5760003560e01c806370a082311161008c578063b88d4fde11610066578063b88d4fde1461025b578063c7cc557d14610277578063c87b56dd14610293578063e985e9c5146102c3576100ea565b806370a08231146101f157806395d89b4114610221578063a22cb4651461023f576100ea565b8063095ea7b3116100c8578063095ea7b31461016d57806323b872dd1461018957806342842e0e146101a55780636352211e146101c1576100ea565b806301ffc9a7146100ef57806306fdde031461011f578063081812fc1461013d575b600080fd5b610109600480360381019061010491906115e5565b6102f3565b604051610116919061162d565b60405180910390f35b6101276103d5565b60405161013491906116d8565b60405180910390f35b61015760048036038101906101529190611730565b610467565b604051610164919061179e565b60405180910390f35b610187600480360381019061018291906117e5565b610483565b005b6101a3600480360381019061019e9190611825565b610499565b005b6101bf60048036038101906101ba9190611825565b61059b565b005b6101db60048036038101906101d69190611730565b6105bb565b6040516101e8919061179e565b60405180910390f35b61020b60048036038101906102069190611878565b6105cd565b60405161021891906118b4565b60405180910390f35b610229610687565b60405161023691906116d8565b60405180910390f35b610259600480360381019061025491906118fb565b610719565b005b61027560048036038101906102709190611a70565b61072f565b005b610291600480360381019061028c9190611bbb565b610754565b005b6102ad60048036038101906102a89190611730565b610826565b6040516102ba91906116d8565b60405180910390f35b6102dd60048036038101906102d89190611c04565b61088f565b6040516102ea919061162d565b60405180910390f35b60007f80ac58cd000000000000000000000000000000000000000000000000000000007bffffffffffffffffffffffffffffffffffffffffffffffffffffffff1916827bffffffffffffffffffffffffffffffffffffffffffffffffffffffff191614806103be57507f5b5e139f000000000000000000000000000000000000000000000000000000007bffffffffffffffffffffffffffffffffffffffffffffffffffffffff1916827bffffffffffffffffffffffffffffffffffffffffffffffffffffffff1916145b806103ce57506103cd826108a3565b5b9050919050565b6060600080546103e490611c73565b80601f016020809104026020016040519081016040528092919081815260200182805461041090611c73565b801561045d5780601f106104325761010080835404028352916020019161045d565b820191906000526020600020905b81548152906001019060200180831161044057829003601f168201915b5050505050905090565b60006104728261090d565b5061047c82610995565b9050919050565b61049582826104906109d2565b6109da565b5050565b600073ffffffffffffffffffffffffffffffffffffffff168273ffffffffffffffffffffffffffffffffffffffff160361050b5760006040517f64a0ae92000000000000000000000000000000000000000000000000000000008152600401610502919061179e565b60405180910390fd5b600061051f838361051a6109d2565b6109ec565b90508373ffffffffffffffffffffffffffffffffffffffff168173ffffffffffffffffffffffffffffffffffffffff1614610595578382826040517f64283d7b00000000000000000000000000000000000000000000000000000000815260040161058c93929190611ca4565b60405180910390fd5b50505050565b6105b68383836040518060200160405280600081525061072f565b505050565b60006105c68261090d565b9050919050565b60008073ffffffffffffffffffffffffffffffffffffffff168273ffffffffffffffffffffffffffffffffffffffff16036106405760006040517f89c62b64000000000000000000000000000000000000000000000000000000008152600401610637919061179e565b60405180910390fd5b600360008373ffffffffffffffffffffffffffffffffffffffff1673ffffffffffffffffffffffffffffffffffffffff168152602001908152602001600020549050919050565b60606001805461069690611c73565b80601f01602080910402602001604051908101604052809291908181526020018280546106c290611c73565b801561070f5780601f106106e45761010080835404028352916020019161070f565b820191906000526020600020905b8154815290600101906020018083116106f257829003601f168201915b5050505050905090565b61072b6107246109d2565b8383610c06565b5050565b61073a848484610499565b61074e6107456109d2565b85858585610d75565b50505050565b60005b8151811015610822573373ffffffffffffffffffffffffffffffffffffffff1661079a83838151811061078d5761078c611cdb565b5b60200260200101516105bb565b73ffffffffffffffffffffffffffffffffffffffff16146107f0576040517f08c379a00000000000000000000000000000000000000000000000000000000081526004016107e790611d56565b60405180910390fd5b610815600083838151811061080857610807611cdb565b5b6020026020010151610483565b8080600101915050610757565b5050565b60606108318261090d565b50600061083c610f26565b9050600081511161085c5760405180602001604052806000815250610887565b8061086684610f3d565b604051602001610877929190611db2565b6040516020818303038152906040525b915050919050565b600061089b838361100b565b905092915050565b60007f01ffc9a7000000000000000000000000000000000000000000000000000000007bffffffffffffffffffffffffffffffffffffffffffffffffffffffff1916827bffffffffffffffffffffffffffffffffffffffffffffffffffffffff1916149050919050565b6000806109198361109f565b9050600073ffffffffffffffffffffffffffffffffffffffff168173ffffffffffffffffffffffffffffffffffffffff160361098c57826040517f7e27328900000000000000000000000000000000000000000000000000000000815260040161098391906118b4565b60405180910390fd5b80915050919050565b60006004600083815260200190815260200160002060009054906101000a900473ffffffffffffffffffffffffffffffffffffffff169050919050565b600033905090565b6109e783838360016110dc565b505050565b6000806109f88461109f565b9050600073ffffffffffffffffffffffffffffffffffffffff168373ffffffffffffffffffffffffffffffffffffffff1614610a3a57610a398184866112a1565b5b600073ffffffffffffffffffffffffffffffffffffffff168173ffffffffffffffffffffffffffffffffffffffff1614610acb57610a7c6000856000806110dc565b6001600360008373ffffffffffffffffffffffffffffffffffffffff1673ffffffffffffffffffffffffffffffffffffffff168152602001908152602001600020600082825403925050819055505b600073ffffffffffffffffffffffffffffffffffffffff168573ffffffffffffffffffffffffffffffffffffffff1614610b4e576001600360008773ffffffffffffffffffffffffffffffffffffffff1673ffffffffffffffffffffffffffffffffffffffff168152602001908152602001600020600082825401925050819055505b846002600086815260200190815260200160002060006101000a81548173ffffffffffffffffffffffffffffffffffffffff021916908373ffffffffffffffffffffffffffffffffffffffff160217905550838573ffffffffffffffffffffffffffffffffffffffff168273ffffffffffffffffffffffffffffffffffffffff167fddf252ad1be2c89b69c2b068fc378daa952ba7f163c4a11628f55a4df523b3ef60405160405180910390a4809150509392505050565b600073ffffffffffffffffffffffffffffffffffffffff168273ffffffffffffffffffffffffffffffffffffffff1603610c7757816040517f5b08ba18000000000000000000000000000000000000000000000000000000008152600401610c6e919061179e565b60405180910390fd5b80600560008573ffffffffffffffffffffffffffffffffffffffff1673ffffffffffffffffffffffffffffffffffffffff16815260200190815260200160002060008473ffffffffffffffffffffffffffffffffffffffff1673ffffffffffffffffffffffffffffffffffffffff16815260200190815260200160002060006101000a81548160ff0219169083151502179055508173ffffffffffffffffffffffffffffffffffffffff168373ffffffffffffffffffffffffffffffffffffffff167f17307eab39ab6107e8899845ad3d59bd9653f200f220920489ca2b5937696c3183604051610d68919061162d565b60405180910390a3505050565b60008373ffffffffffffffffffffffffffffffffffffffff163b1115610f1f578273ffffffffffffffffffffffffffffffffffffffff1663150b7a02868685856040518563ffffffff1660e01b8152600401610dd49493929190611e2b565b6020604051808303816000875af1925050508015610e1057506040513d601f19601f82011682018060405250810190610e0d9190611e8c565b60015b610e94573d8060008114610e40576040519150601f19603f3d011682016040523d82523d6000602084013e610e45565b606091505b506000815103610e8c57836040517f64a0ae92000000000000000000000000000000000000000000000000000000008152600401610e83919061179e565b60405180910390fd5b805181602001fd5b63150b7a0260e01b7bffffffffffffffffffffffffffffffffffffffffffffffffffffffff1916817bffffffffffffffffffffffffffffffffffffffffffffffffffffffff191614610f1d57836040517f64a0ae92000000000000000000000000000000000000000000000000000000008152600401610f14919061179e565b60405180910390fd5b505b5050505050565b606060405180602001604052806000815250905090565b606060006001610f4c84611365565b01905060008167ffffffffffffffff811115610f6b57610f6a611945565b5b6040519080825280601f01601f191660200182016040528015610f9d5781602001600182028036833780820191505090505b509050600082602001820190505b600115611000578080600190039150507f3031323334353637383961626364656600000000000000000000000000000000600a86061a8153600a8581610ff457610ff3611eb9565b5b04945060008503610fab575b819350505050919050565b6000600560008473ffffffffffffffffffffffffffffffffffffffff1673ffffffffffffffffffffffffffffffffffffffff16815260200190815260200160002060008373ffffffffffffffffffffffffffffffffffffffff1673ffffffffffffffffffffffffffffffffffffffff16815260200190815260200160002060009054906101000a900460ff16905092915050565b60006002600083815260200190815260200160002060009054906101000a900473ffffffffffffffffffffffffffffffffffffffff169050919050565b80806111155750600073ffffffffffffffffffffffffffffffffffffffff168273ffffffffffffffffffffffffffffffffffffffff1614155b156112495760006111258461090d565b9050600073ffffffffffffffffffffffffffffffffffffffff168373ffffffffffffffffffffffffffffffffffffffff161415801561119057508273ffffffffffffffffffffffffffffffffffffffff168173ffffffffffffffffffffffffffffffffffffffff1614155b80156111a357506111a1818461088f565b155b156111e557826040517fa9fbf51f0000000000000000000000000000000000000000000000000000000081526004016111dc919061179e565b60405180910390fd5b811561124757838573ffffffffffffffffffffffffffffffffffffffff168273ffffffffffffffffffffffffffffffffffffffff167f8c5be1e5ebec7d5bd14f71427d1e84f3dd0314c0f7b2291e5b200ac8c7c3b92560405160405180910390a45b505b836004600085815260200190815260200160002060006101000a81548173ffffffffffffffffffffffffffffffffffffffff021916908373ffffffffffffffffffffffffffffffffffffffff16021790555050505050565b6112ac8383836114b8565b61136057600073ffffffffffffffffffffffffffffffffffffffff168373ffffffffffffffffffffffffffffffffffffffff160361132157806040517f7e27328900000000000000000000000000000000000000000000000000000000815260040161131891906118b4565b60405180910390fd5b81816040517f177e802f000000000000000000000000000000000000000000000000000000008152600401611357929190611ee8565b60405180910390fd5b505050565b600080600090507a184f03e93ff9f4daa797ed6e38ed64bf6a1f01000000000000000083106113c3577a184f03e93ff9f4daa797ed6e38ed64bf6a1f01000000000000000083816113b9576113b8611eb9565b5b0492506040810190505b6d04ee2d6d415b85acef81000000008310611400576d04ee2d6d415b85acef810000000083816113f6576113f5611eb9565b5b0492506020810190505b662386f26fc10000831061142f57662386f26fc10000838161142557611424611eb9565b5b0492506010810190505b6305f5e1008310611458576305f5e100838161144e5761144d611eb9565b5b0492506008810190505b612710831061147d57612710838161147357611472611eb9565b5b0492506004810190505b606483106114a0576064838161149657611495611eb9565b5b0492506002810190505b600a83106114af576001810190505b80915050919050565b60008073ffffffffffffffffffffffffffffffffffffffff168373ffffffffffffffffffffffffffffffffffffffff161415801561157057508273ffffffffffffffffffffffffffffffffffffffff168473ffffffffffffffffffffffffffffffffffffffff1614806115315750611530848461088f565b5b8061156f57508273ffffffffffffffffffffffffffffffffffffffff1661155783610995565b73ffffffffffffffffffffffffffffffffffffffff16145b5b90509392505050565b6000604051905090565b600080fd5b600080fd5b60007fffffffff0000000000000000000000000000000000000000000000000000000082169050919050565b6115c28161158d565b81146115cd57600080fd5b50565b6000813590506115df816115b9565b92915050565b6000602082840312156115fb576115fa611583565b5b6000611609848285016115d0565b91505092915050565b60008115159050919050565b61162781611612565b82525050565b6000602082019050611642600083018461161e565b92915050565b600081519050919050565b600082825260208201905092915050565b60005b83811015611682578082015181840152602081019050611667565b60008484015250505050565b6000601f19601f8301169050919050565b60006116aa82611648565b6116b48185611653565b93506116c4818560208601611664565b6116cd8161168e565b840191505092915050565b600060208201905081810360008301526116f2818461169f565b905092915050565b6000819050919050565b61170d816116fa565b811461171857600080fd5b50565b60008135905061172a81611704565b92915050565b60006020828403121561174657611745611583565b5b60006117548482850161171b565b91505092915050565b600073ffffffffffffffffffffffffffffffffffffffff82169050919050565b60006117888261175d565b9050919050565b6117988161177d565b82525050565b60006020820190506117b3600083018461178f565b92915050565b6117c28161177d565b81146117cd57600080fd5b50565b6000813590506117df816117b9565b92915050565b600080604083850312156117fc576117fb611583565b5b600061180a858286016117d0565b925050602061181b8582860161171b565b9150509250929050565b60008060006060848603121561183e5761183d611583565b5b600061184c868287016117d0565b935050602061185d868287016117d0565b925050604061186e8682870161171b565b9150509250925092565b60006020828403121561188e5761188d611583565b5b600061189c848285016117d0565b91505092915050565b6118ae816116fa565b82525050565b60006020820190506118c960008301846118a5565b92915050565b6118d881611612565b81146118e357600080fd5b50565b6000813590506118f5816118cf565b92915050565b6000806040838503121561191257611911611583565b5b6000611920858286016117d0565b9250506020611931858286016118e6565b9150509250929050565b600080fd5b600080fd5b7f4e487b7100000000000000000000000000000000000000000000000000000000600052604160045260246000fd5b61197d8261168e565b810181811067ffffffffffffffff8211171561199c5761199b611945565b5b80604052505050565b60006119af611579565b90506119bb8282611974565b919050565b600067ffffffffffffffff8211156119db576119da611945565b5b6119e48261168e565b9050602081019050919050565b82818337600083830152505050565b6000611a13611a0e846119c0565b6119a5565b905082815260208101848484011115611a2f57611a2e611940565b5b611a3a8482856119f1565b509392505050565b600082601f830112611a5757611a5661193b565b5b8135611a67848260208601611a00565b91505092915050565b60008060008060808587031215611a8a57611a89611583565b5b6000611a98878288016117d0565b9450506020611aa9878288016117d0565b9350506040611aba8782880161171b565b925050606085013567ffffffffffffffff811115611adb57611ada611588565b5b611ae787828801611a42565b91505092959194509250565b600067ffffffffffffffff821115611b0e57611b0d611945565b5b602082029050602081019050919050565b600080fd5b6000611b37611b3284611af3565b6119a5565b90508083825260208201905060208402830185811115611b5a57611b59611b1f565b5b835b81811015611b835780611b6f888261171b565b845260208401935050602081019050611b5c565b5050509392505050565b600082601f830112611ba257611ba161193b565b5b8135611bb2848260208601611b24565b91505092915050565b600060208284031215611bd157611bd0611583565b5b600082013567ffffffffffffffff811115611bef57611bee611588565b5b611bfb84828501611b8d565b91505092915050565b60008060408385031215611c1b57611c1a611583565b5b6000611c29858286016117d0565b9250506020611c3a858286016117d0565b9150509250929050565b7f4e487b7100000000000000000000000000000000000000000000000000000000600052602260045260246000fd5b60006002820490506001821680611c8b57607f821691505b602082108103611c9e57611c9d611c44565b5b50919050565b6000606082019050611cb9600083018661178f565b611cc660208301856118a5565b611cd3604083018461178f565b949350505050565b7f4e487b7100000000000000000000000000000000000000000000000000000000600052603260045260246000fd5b7f4e6f74206f776e6572206f6620746f6b656e0000000000000000000000000000600082015250565b6000611d40601283611653565b9150611d4b82611d0a565b602082019050919050565b60006020820190508181036000830152611d6f81611d33565b9050919050565b600081905092915050565b6000611d8c82611648565b611d968185611d76565b9350611da6818560208601611664565b80840191505092915050565b6000611dbe8285611d81565b9150611dca8284611d81565b91508190509392505050565b600081519050919050565b600082825260208201905092915050565b6000611dfd82611dd6565b611e078185611de1565b9350611e17818560208601611664565b611e208161168e565b840191505092915050565b6000608082019050611e40600083018761178f565b611e4d602083018661178f565b611e5a60408301856118a5565b8181036060830152611e6c8184611df2565b905095945050505050565b600081519050611e86816115b9565b92915050565b600060208284031215611ea257611ea1611583565b5b6000611eb084828501611e77565b91505092915050565b7f4e487b7100000000000000000000000000000000000000000000000000000000600052601260045260246000fd5b6000604082019050611efd600083018561178f565b611f0a60208301846118a5565b939250505056fea2646970667358221220949145a1d1a541c59cdb6f3b5c5669e336b1a9b9774c58460ba0c28a01f853b764736f6c634300081c0033",
  "linkReferences": {},
  "deployedLinkReferences": {}
}