{
  "_format": "hh-sol-artifact-1",
  "contractName": "TestNFT",
  "sourceName": "contracts/TestNFT.sol",
  "abi": [
    {
      "inputs": [],
      "stateMutability": "nonpayable",
      "type": "constructor"
    },
    {
      "inputs": [
        {
          "internalType": "address",
          "name": "sender",
          "type": "address"
        },
        {
          "internalType": "uint256",
          "name": "tokenId",
          "type": "uint256"
        },
        {
          "internalType": "address",
          "name": "owner",
          "type": "address"
        }
      ],
      "name": "ERC721IncorrectOwner",
      "type": "error"
    },
    {
      "inputs": [
        {
          "internalType": "address",
          "name": "operator",
          "type": "address"
        },
        {
          "internalType": "uint256",
          "name": "tokenId",
          "type": "uint256"
        }
      ],
      "name": "ERC721InsufficientApproval",
      "type": "error"
    },
    {
      "inputs": [
        {
          "internalType": "address",
          "name": "approver",
          "type": "address"
        }
      ],
      "name": "ERC721InvalidApprover",
      "type": "error"
    },
    {
      "inputs": [
        {
          "internalType": "address",
          "name": "operator",
          "type": "address"
        }
      ],
      "name": "ERC721InvalidOperator",
      "type": "error"
    },
    {
      "inputs": [
        {
          "internalType": "address",
          "name": "owner",
          "type": "address"
        }
      ],
      "name": "ERC721InvalidOwner",
      "type": "error"
    },
    {
      "inputs": [
        {
          "internalType": "address",
          "name": "receiver",
          "type": "address"
        }
      ],
      "name": "ERC721InvalidReceiver",
      "type": "error"
    },
    {
      "inputs": [
        {
          "internalType": "address",
          "name": "sender",
          "type": "address"
        }
      ],
      "name": "ERC721InvalidSender",
      "type": "error"
    },
    {
      "inputs": [
        {
          "internalType": "uint256",
          "name": "tokenId",
          "type": "uint256"
        }
      ],
      "name": "ERC721NonexistentToken",
      "type": "error"
    },
    {
      "anonymous": false,
      "inputs": [
        {
          "indexed": true,
          "internalType": "address",
          "name": "owner",
          "type": "address"
        },
        {
          "indexed": true,
          "internalType": "address",
          "name": "approved",
          "type": "address"
        },
        {
          "indexed": true,
          "internalType": "uint256",
          "name": "tokenId",
          "type": "uint256"
        }
      ],
      "name": "Approval",
      "type": "event"
    },
    {
      "anonymous": false,
      "inputs": [
        {
          "indexed": true,
          "internalType": "address",
          "name": "owner",
          "type": "address"
        },
        {
          "indexed": true,
          "internalType": "address",
          "name": "operator",
          "type": "address"
        },
        {
          "indexed": false,
          "internalType": "bool",
          "name": "approved",
          "type": "bool"
        }
      ],
      "name": "ApprovalForAll",
      "type": "event"
    },
    {
      "anonymous": false,
      "inputs": [
        {
          "indexed": true,
          "internalType": "address",
          "name": "from",
          "type": "address"
        },
        {
          "indexed": true,
          "internalType": "address",
          "name": "to",
          "type": "address"
        },
        {
          "indexed": true,
          "internalType": "uint256",
          "name": "tokenId",
          "type": "uint256"
        }
      ],
      "name": "Transfer",
      "type": "event"
    },
    {
      "inputs": [
        {
          "internalType": "address",
          "name": "to",
          "type": "address"
        },
        {
          "internalType": "uint256",
          "name": "tokenId",
          "type": "uint256"
        }
      ],
      "name": "approve",
      "outputs": [],
      "stateMutability": "nonpayable",
      "type": "function"
    },
    {
      "inputs": [
        {
          "internalType": "address",
          "name": "owner",
          "type": "address"
        }
      ],
      "name": "balanceOf",
      "outputs": [
        {
          "internalType": "uint256",
          "name": "",
          "type": "uint256"
        }
      ],
      "stateMutability": "view",
      "type": "function"
    },
    {
      "inputs": [
        {
          "internalType": "uint256[]",
          "name": "tokenIds",
          "type": "uint256[]"
        }
      ],
      "name": "batchRevokeApprovals",
      "outputs": [],
      "stateMutability": "nonpayable",
      "type": "function"
    },
    {
      "inputs": [
        {
          "internalType": "uint256",
          "name": "tokenId",
          "type": "uint256"
        }
      ],
      "name": "getApproved",
      "outputs": [
        {
          "internalType": "address",
          "name": "",
          "type": "address"
        }
      ],
      "stateMutability": "view",
      "type": "function"
    },
    {
      "inputs": [
        {
          "internalType": "address",
          "name": "owner",
          "type": "address"
        },
        {
          "internalType": "address",
          "name": "operator",
          "type": "address"
        }
      ],
      "name": "isApprovedForAll",
      "outputs": [
        {
          "internalType": "bool",
          "name": "",
          "type": "bool"
        }
      ],
      "stateMutability": "view",
      "type": "function"
    },
    {
      "inputs": [],
      "name": "name",
      "outputs": [
        {
          "internalType": "string",
          "name": "",
          "type": "string"
        }
      ],
      "stateMutability": "view",
      "type": "function"
    },
    {
      "inputs": [
        {
          "internalType": "uint256",
          "name": "tokenId",
          "type": "uint256"
        }
      ],
      "name": "ownerOf",
      "outputs": [
        {
          "internalType": "address",
          "name": "",
          "type": "address"
        }
      ],
      "stateMutability": "view",
      "type": "function"
    },
    {
      "inputs": [
        {
          "internalType": "address",
          "name": "from",
          "type": "address"
        },
        {
          "internalType": "address",
          "name": "to",
          "type": "address"
        },
        {
          "internalType": "uint256",
          "name": "tokenId",
          "type": "uint256"
        }
      ],
      "name": "safeTransferFrom",
      "outputs": [],
      "stateMutability": "nonpayable",
      "type": "function"
    },
    {
      "inputs": [
        {
          "internalType": "address",
          "name": "from",
          "type": "address"
        },
        {
          "internalType": "address",
          "name": "to",
          "type": "address"
        },
        {
          "internalType": "uint256",
          "name": "tokenId",
          "type": "uint256"
        },
        {
          "internalType": "bytes",
          "name": "data",
          "type": "bytes"
        }
      ],
      "name": "safeTransferFrom",
      "outputs": [],
      "stateMutability": "nonpayable",
      "type": "function"
    },
    {
      "inputs": [
        {
          "internalType": "address",
          "name": "operator",
          "type": "address"
        },
        {
          "internalType": "bool",
          "name": "approved",
          "type": "bool"
        }
      ],
      "name": "setApprovalForAll",
      "outputs": [],
      "stateMutability": "nonpayable",
      "type": "function"
    },
    {
      "inputs": [
        {
          "internalType": "bytes4",
          "name": "interfaceId",
          "type": "bytes4"
        }
      ],
      "name": "supportsInterface",
      "outputs": [
        {
          "internalType": "bool",
          "name": "",
          "type": "bool"
        }
      ],
      "stateMutability": "view",
      "type": "function"
    },
    {
      "inputs": [],
      "name": "symbol",
      "outputs": [
        {
          "internalType": "string",
          "name": "",
          "type": "string"
        }
      ],
      "stateMutability": "view",
      "type": "function"
    },
    {
      "inputs": [
        {
          "internalType": "uint256",
          "name": "tokenId",
          "type": "uint256"
        }
      ],
      "name": "tokenURI",
      "outputs": [
        {
          "internalType": "string",
          "name": "",
          "type": "string"
        }
      ],
      "stateMutability": "view",
      "type": "function"
    },
    {
      "inputs": [
        {
          "internalType": "address",
          "name": "from",
          "type": "address"
        },
        {
          "internalType": "address",
          "name": "to",
          "type": "address"
        },
        {
          "internalType": "uint256",
          "name": "tokenId",
          "type": "uint256"
        }
      ],
      "name": "transferFrom",
      "outputs": [],
      "stateMutability": "nonpayable",
      "type": "function"
    }
  ],
  "bytecode": "0x608060405234801561001057600080fd5b506040518060400160405280600781526020017f546573744e4654000000000000000000000000000000000000000000000000008152506040518060400160405280600481526020017f544e465400000000000000000000000000000000000000000000000000000000815250816000908161008c9190610b56565b50806001908161009c9190610b56565b5050506100b03360016100d760201b60201c565b6100c13360026100d760201b60201c565b6100d23360036100d760201b60201c565b610cd7565b600073ffffffffffffffffffffffffffffffffffffffff168273ffffffffffffffffffffffffffffffffffffffff16036101495760006040517f64a0ae920000000000000000000000000000000000000000000000000000000081526004016101409190610c69565b60405180910390fd5b600061015d838360006101d660201b60201c565b9050600073ffffffffffffffffffffffffffffffffffffffff168173ffffffffffffffffffffffffffffffffffffffff16146101d15760006040517f73c6ac6e0000000000000000000000000000000000000000000000000000000081526004016101c89190610c69565b60405180910390fd5b505050565b6000806101e88461040260201b60201c565b9050600073ffffffffffffffffffffffffffffffffffffffff168373ffffffffffffffffffffffffffffffffffffffff16146102305761022f81848661043f60201b60201c565b5b600073ffffffffffffffffffffffffffffffffffffffff168173ffffffffffffffffffffffffffffffffffffffff16146102c75761027860008560008061050960201b60201c565b6001600360008373ffffffffffffffffffffffffffffffffffffffff1673ffffffffffffffffffffffffffffffffffffffff168152602001908152602001600020600082825403925050819055505b600073ffffffffffffffffffffffffffffffffffffffff168573ffffffffffffffffffffffffffffffffffffffff161461034a576001600360008773ffffffffffffffffffffffffffffffffffffffff1673ffffffffffffffffffffffffffffffffffffffff168152602001908152602001600020600082825401925050819055505b846002600086815260200190815260200160002060006101000a81548173ffffffffffffffffffffffffffffffffffffffff021916908373ffffffffffffffffffffffffffffffffffffffff160217905550838573ffffffffffffffffffffffffffffffffffffffff168273ffffffffffffffffffffffffffffffffffffffff167fddf252ad1be2c89b69c2b068fc378daa952ba7f163c4a11628f55a4df523b3ef60405160405180910390a4809150509392505050565b60006002600083815260200190815260200160002060009054906101000a900473ffffffffffffffffffffffffffffffffffffffff169050919050565b6104508383836106da60201b60201c565b61050457600073ffffffffffffffffffffffffffffffffffffffff168373ffffffffffffffffffffffffffffffffffffffff16036104c557806040517f7e2732890000000000000000000000000000000000000000000000000000000081526004016104bc9190610c93565b60405180910390fd5b81816040517f177e802f0000000000000000000000000000000000000000000000000000000081526004016104fb929190610cae565b60405180910390fd5b505050565b80806105425750600073ffffffffffffffffffffffffffffffffffffffff168273ffffffffffffffffffffffffffffffffffffffff1614155b15610682576000610558846107a760201b60201c565b9050600073ffffffffffffffffffffffffffffffffffffffff168373ffffffffffffffffffffffffffffffffffffffff16141580156105c357508273ffffffffffffffffffffffffffffffffffffffff168173ffffffffffffffffffffffffffffffffffffffff1614155b80156105dc57506105da818461083560201b60201c565b155b1561061e57826040517fa9fbf51f0000000000000000000000000000000000000000000000000000000081526004016106159190610c69565b60405180910390fd5b811561068057838573ffffffffffffffffffffffffffffffffffffffff168273ffffffffffffffffffffffffffffffffffffffff167f8c5be1e5ebec7d5bd14f71427d1e84f3dd0314c0f7b2291e5b200ac8c7c3b92560405160405180910390a45b505b836004600085815260200190815260200160002060006101000a81548173ffffffffffffffffffffffffffffffffffffffff021916908373ffffffffffffffffffffffffffffffffffffffff16021790555050505050565b60008073ffffffffffffffffffffffffffffffffffffffff168373ffffffffffffffffffffffffffffffffffffffff161415801561079e57508273ffffffffffffffffffffffffffffffffffffffff168473ffffffffffffffffffffffffffffffffffffffff1614806107595750610758848461083560201b60201c565b5b8061079d57508273ffffffffffffffffffffffffffffffffffffffff16610785836108c960201b60201c565b73ffffffffffffffffffffffffffffffffffffffff16145b5b90509392505050565b6000806107b98361040260201b60201c565b9050600073ffffffffffffffffffffffffffffffffffffffff168173ffffffffffffffffffffffffffffffffffffffff160361082c57826040517f7e2732890000000000000000000000000000000000000000000000000000000081526004016108239190610c93565b60405180910390fd5b80915050919050565b6000600560008473ffffffffffffffffffffffffffffffffffffffff1673ffffffffffffffffffffffffffffffffffffffff16815260200190815260200160002060008373ffffffffffffffffffffffffffffffffffffffff1673ffffffffffffffffffffffffffffffffffffffff16815260200190815260200160002060009054906101000a900460ff16905092915050565b60006004600083815260200190815260200160002060009054906101000a900473ffffffffffffffffffffffffffffffffffffffff169050919050565b600081519050919050565b7f4e487b7100000000000000000000000000000000000000000000000000000000600052604160045260246000fd5b7f4e487b7100000000000000000000000000000000000000000000000000000000600052602260045260246000fd5b6000600282049050600182168061098757607f821691505b60208210810361099a57610999610940565b5b50919050565b60008190508160005260206000209050919050565b60006020601f8301049050919050565b600082821b905092915050565b600060088302610a027fffffffffffffffffffffffffffffffffffffffffffffffffffffffffffffffff826109c5565b610a0c86836109c5565b95508019841693508086168417925050509392505050565b6000819050919050565b6000819050919050565b6000610a53610a4e610a4984610a24565b610a2e565b610a24565b9050919050565b6000819050919050565b610a6d83610a38565b610a81610a7982610a5a565b8484546109d2565b825550505050565b600090565b610a96610a89565b610aa1818484610a64565b505050565b5b81811015610ac557610aba600082610a8e565b600181019050610aa7565b5050565b601f821115610b0a57610adb816109a0565b610ae4846109b5565b81016020851015610af3578190505b610b07610aff856109b5565b830182610aa6565b50505b505050565b600082821c905092915050565b6000610b2d60001984600802610b0f565b1980831691505092915050565b6000610b468383610b1c565b9150826002028217905092915050565b610b5f82610906565b67ffffffffffffffff811115610b7857610b77610911565b5b610b82825461096f565b610b8d828285610ac9565b600060209050601f831160018114610bc05760008415610bae578287015190505b610bb88582610b3a565b865550610c20565b601f198416610bce866109a0565b60005b82811015610bf657848901518255600182019150602085019450602081019050610bd1565b86831015610c135784890151610c0f601f891682610b1c565b8355505b6001600288020188555050505b505050505050565b600073ffffffffffffffffffffffffffffffffffffffff82169050919050565b6000610c5382610c28565b9050919050565b610c6381610c48565b82525050565b6000602082019050610c7e6000830184610c5a565b92915050565b610c8d81610a24565b82525050565b6000602082019050610ca86000830184610c84565b92915050565b6000604082019050610cc36000830185610c5a565b610cd06020830184610c84565b9392505050565b611f3380610ce66000396000f3fe608060405234801561001057600080fd5b50600436106100ea5760003560e01c806370a082311161008c578063b88d4fde11610066578063b88d4fde1461025b578063c7cc557d14610277578063c87b56dd14610293578063e985e9c5146102c3576100ea565b806370a08231146101f157806395d89b4114610221578063a22cb4651461023f576100ea565b8063095ea7b3116100c8578063095ea7b31461016d57806323b872dd1461018957806342842e0e146101a55780636352211e146101c1576100ea565b806301ffc9a7146100ef57806306fdde031461011f578063081812fc1461013d575b600080fd5b610109600480360381019061010491906115d1565b6102f3565b6040516101169190611619565b60405180910390f35b6101276103d5565b60405161013491906116c4565b60405180910390f35b6101576004803603810190610152919061171c565b610467565b604051610164919061178a565b60405180910390f35b610187600480360381019061018291906117d1565b610483565b005b6101a3600480360381019061019e9190611811565b610499565b005b6101bf60048036038101906101ba9190611811565b61059b565b005b6101db60048036038101906101d6919061171c565b6105bb565b6040516101e8919061178a565b60405180910390f35b61020b60048036038101906102069190611864565b6105cd565b60405161021891906118a0565b60405180910390f35b610229610687565b60405161023691906116c4565b60405180910390f35b610259600480360381019061025491906118e7565b610719565b005b61027560048036038101906102709190611a5c565b61072f565b005b610291600480360381019061028c9190611ba7565b610754565b005b6102ad60048036038101906102a8919061171c565b610826565b6040516102ba91906116c4565b60405180910390f35b6102dd60048036038101906102d89190611bf0565b61088f565b6040516102ea9190611619565b60405180910390f35b60007f80ac58cd000000000000000000000000000000000000000000000000000000007bffffffffffffffffffffffffffffffffffffffffffffffffffffffff1916827bffffffffffffffffffffffffffffffffffffffffffffffffffffffff191614806103be57507f5b5e139f000000000000000000000000000000000000000000000000000000007bffffffffffffffffffffffffffffffffffffffffffffffffffffffff1916827bffffffffffffffffffffffffffffffffffffffffffffffffffffffff1916145b806103ce57506103cd82610923565b5b9050919050565b6060600080546103e490611c5f565b80601f016020809104026020016040519081016040528092919081815260200182805461041090611c5f565b801561045d5780601f106104325761010080835404028352916020019161045d565b820191906000526020600020905b81548152906001019060200180831161044057829003601f168201915b5050505050905090565b60006104728261098d565b5061047c82610a15565b9050919050565b6104958282610490610a52565b610a5a565b5050565b600073ffffffffffffffffffffffffffffffffffffffff168273ffffffffffffffffffffffffffffffffffffffff160361050b5760006040517f64a0ae92000000000000000000000000000000000000000000000000000000008152600401610502919061178a565b60405180910390fd5b600061051f838361051a610a52565b610a6c565b90508373ffffffffffffffffffffffffffffffffffffffff168173ffffffffffffffffffffffffffffffffffffffff1614610595578382826040517f64283d7b00000000000000000000000000000000000000000000000000000000815260040161058c93929190611c90565b60405180910390fd5b50505050565b6105b68383836040518060200160405280600081525061072f565b505050565b60006105c68261098d565b9050919050565b60008073ffffffffffffffffffffffffffffffffffffffff168273ffffffffffffffffffffffffffffffffffffffff16036106405760006040517f89c62b64000000000000000000000000000000000000000000000000000000008152600401610637919061178a565b60405180910390fd5b600360008373ffffffffffffffffffffffffffffffffffffffff1673ffffffffffffffffffffffffffffffffffffffff168152602001908152602001600020549050919050565b60606001805461069690611c5f565b80601f01602080910402602001604051908101604052809291908181526020018280546106c290611c5f565b801561070f5780601f106106e45761010080835404028352916020019161070f565b820191906000526020600020905b8154815290600101906020018083116106f257829003601f168201915b5050505050905090565b61072b610724610a52565b8383610c86565b5050565b61073a848484610499565b61074e610745610a52565b85858585610df5565b50505050565b60005b8151811015610822573373ffffffffffffffffffffffffffffffffffffffff1661079a83838151811061078d5761078c611cc7565b5b60200260200101516105bb565b73ffffffffffffffffffffffffffffffffffffffff16146107f0576040517f08c379a00000000000000000000000000000000000000000000000000000000081526004016107e790611d42565b60405180910390fd5b610815600083838151811061080857610807611cc7565b5b6020026020010151610483565b8080600101915050610757565b5050565b60606108318261098d565b50600061083c610fa6565b9050600081511161085c5760405180602001604052806000815250610887565b8061086684610fbd565b604051602001610877929190611d9e565b6040516020818303038152906040525b915050919050565b6000600560008473ffffffffffffffffffffffffffffffffffffffff1673ffffffffffffffffffffffffffffffffffffffff16815260200190815260200160002060008373ffffffffffffffffffffffffffffffffffffffff1673ffffffffffffffffffffffffffffffffffffffff16815260200190815260200160002060009054906101000a900460ff16905092915050565b60007f01ffc9a7000000000000000000000000000000000000000000000000000000007bffffffffffffffffffffffffffffffffffffffffffffffffffffffff1916827bffffffffffffffffffffffffffffffffffffffffffffffffffffffff1916149050919050565b6000806109998361108b565b9050600073ffffffffffffffffffffffffffffffffffffffff168173ffffffffffffffffffffffffffffffffffffffff1603610a0c57826040517f7e273289000000000000000000000000000000000000000000000000000000008152600401610a0391906118a0565b60405180910390fd5b80915050919050565b60006004600083815260200190815260200160002060009054906101000a900473ffffffffffffffffffffffffffffffffffffffff169050919050565b600033905090565b610a6783838360016110c8565b505050565b600080610a788461108b565b9050600073ffffffffffffffffffffffffffffffffffffffff168373ffffffffffffffffffffffffffffffffffffffff1614610aba57610ab981848661128d565b5b600073ffffffffffffffffffffffffffffffffffffffff168173ffffffffffffffffffffffffffffffffffffffff1614610b4b57610afc6000856000806110c8565b6001600360008373ffffffffffffffffffffffffffffffffffffffff1673ffffffffffffffffffffffffffffffffffffffff168152602001908152602001600020600082825403925050819055505b600073ffffffffffffffffffffffffffffffffffffffff168573ffffffffffffffffffffffffffffffffffffffff1614610bce576001600360008773ffffffffffffffffffffffffffffffffffffffff1673ffffffffffffffffffffffffffffffffffffffff168152602001908152602001600020600082825401925050819055505b846002600086815260200190815260200160002060006101000a81548173ffffffffffffffffffffffffffffffffffffffff021916908373ffffffffffffffffffffffffffffffffffffffff160217905550838573ffffffffffffffffffffffffffffffffffffffff168273ffffffffffffffffffffffffffffffffffffffff167fddf252ad1be2c89b69c2b068fc378daa952ba7f163c4a11628f55a4df523b3ef60405160405180910390a4809150509392505050565b600073ffffffffffffffffffffffffffffffffffffffff168273ffffffffffffffffffffffffffffffffffffffff1603610cf757816040517f5b08ba18000000000000000000000000000000000000000000000000000000008152600401610cee919061178a565b60405180910390fd5b80600560008573ffffffffffffffffffffffffffffffffffffffff1673ffffffffffffffffffffffffffffffffffffffff16815260200190815260200160002060008473ffffffffffffffffffffffffffffffffffffffff1673ffffffffffffffffffffffffffffffffffffffff16815260200190815260200160002060006101000a81548160ff0219169083151502179055508173ffffffffffffffffffffffffffffffffffffffff168373ffffffffffffffffffffffffffffffffffffffff167f17307eab39ab6107e8899845ad3d59bd9653f200f220920489ca2b5937696c3183604051610de89190611619565b60405180910390a3505050565b60008373ffffffffffffffffffffffffffffffffffffffff163b1115610f9f578273ffffffffffffffffffffffffffffffffffffffff1663150b7a02868685856040518563ffffffff1660e01b8152600401610e549493929190611e17565b6020604051808303816000875af1925050508015610e9057506040513d601f19601f82011682018060405250810190610e8d9190611e78565b60015b610f14573d8060008114610ec0576040519150601f19603f3d011682016040523d82523d6000602084013e610ec5565b606091505b506000815103610f0c57836040517f64a0ae92000000000000000000000000000000000000000000000000000000008152600401610f03919061178a565b60405180910390fd5b805181602001fd5b63150b7a0260e01b7bffffffffffffffffffffffffffffffffffffffffffffffffffffffff1916817bffffffffffffffffffffffffffffffffffffffffffffffffffffffff191614610f9d57836040517f64a0ae92000000000000000000000000000000000000000000000000000000008152600401610f94919061178a565b60405180910390fd5b505b5050505050565b606060405180602001604052806000815250905090565b606060006001610fcc84611351565b01905060008167ffffffffffffffff811115610feb57610fea611931565b5b6040519080825280601f01601f19166020018201604052801561101d5781602001600182028036833780820191505090505b509050600082602001820190505b600115611080578080600190039150507f3031323334353637383961626364656600000000000000000000000000000000600a86061a8153600a858161107457611073611ea5565b5b0494506000850361102b575b819350505050919050565b60006002600083815260200190815260200160002060009054906101000a900473ffffffffffffffffffffffffffffffffffffffff169050919050565b80806111015750600073ffffffffffffffffffffffffffffffffffffffff168273ffffffffffffffffffffffffffffffffffffffff1614155b156112355760006111118461098d565b9050600073ffffffffffffffffffffffffffffffffffffffff168373ffffffffffffffffffffffffffffffffffffffff161415801561117c57508273ffffffffffffffffffffffffffffffffffffffff168173ffffffffffffffffffffffffffffffffffffffff1614155b801561118f575061118d818461088f565b155b156111d157826040517fa9fbf51f0000000000000000000000000000000000000000000000000000000081526004016111c8919061178a565b60405180910390fd5b811561123357838573ffffffffffffffffffffffffffffffffffffffff168273ffffffffffffffffffffffffffffffffffffffff167f8c5be1e5ebec7d5bd14f71427d1e84f3dd0314c0f7b2291e5b200ac8c7c3b92560405160405180910390a45b505b836004600085815260200190815260200160002060006101000a81548173ffffffffffffffffffffffffffffffffffffffff021916908373ffffffffffffffffffffffffffffffffffffffff16021790555050505050565b6112988383836114a4565b61134c57600073ffffffffffffffffffffffffffffffffffffffff168373ffffffffffffffffffffffffffffffffffffffff160361130d57806040517f7e27328900000000000000000000000000000000000000000000000000000000815260040161130491906118a0565b60405180910390fd5b81816040517f177e802f000000000000000000000000000000000000000000000000000000008152600401611343929190611ed4565b60405180910390fd5b505050565b600080600090507a184f03e93ff9f4daa797ed6e38ed64bf6a1f01000000000000000083106113af577a184f03e93ff9f4daa797ed6e38ed64bf6a1f01000000000000000083816113a5576113a4611ea5565b5b0492506040810190505b6d04ee2d6d415b85acef810000000083106113ec576d04ee2d6d415b85acef810000000083816113e2576113e1611ea5565b5b0492506020810190505b662386f26fc10000831061141b57662386f26fc10000838161141157611410611ea5565b5b0492506010810190505b6305f5e1008310611444576305f5e100838161143a57611439611ea5565b5b0492506008810190505b612710831061146957612710838161145f5761145e611ea5565b5b0492506004810190505b6064831061148c576064838161148257611481611ea5565b5b0492506002810190505b600a831061149b576001810190505b80915050919050565b60008073ffffffffffffffffffffffffffffffffffffffff168373ffffffffffffffffffffffffffffffffffffffff161415801561155c57508273ffffffffffffffffffffffffffffffffffffffff168473ffffffffffffffffffffffffffffffffffffffff16148061151d575061151c848461088f565b5b8061155b57508273ffffffffffffffffffffffffffffffffffffffff1661154383610a15565b73ffffffffffffffffffffffffffffffffffffffff16145b5b90509392505050565b6000604051905090565b600080fd5b600080fd5b60007fffffffff0000000000000000000000000000000000000000000000000000000082169050919050565b6115ae81611579565b81146115b957600080fd5b50565b6000813590506115cb816115a5565b92915050565b6000602082840312156115e7576115e661156f565b5b60006115f5848285016115bc565b91505092915050565b60008115159050919050565b611613816115fe565b82525050565b600060208201905061162e600083018461160a565b92915050565b600081519050919050565b600082825260208201905092915050565b60005b8381101561166e578082015181840152602081019050611653565b60008484015250505050565b6000601f19601f8301169050919050565b600061169682611634565b6116a0818561163f565b93506116b0818560208601611650565b6116b98161167a565b840191505092915050565b600060208201905081810360008301526116de818461168b565b905092915050565b6000819050919050565b6116f9816116e6565b811461170457600080fd5b50565b600081359050611716816116f0565b92915050565b6000602082840312156117325761173161156f565b5b600061174084828501611707565b91505092915050565b600073ffffffffffffffffffffffffffffffffffffffff82169050919050565b600061177482611749565b9050919050565b61178481611769565b82525050565b600060208201905061179f600083018461177b565b92915050565b6117ae81611769565b81146117b957600080fd5b50565b6000813590506117cb816117a5565b92915050565b600080604083850312156117e8576117e761156f565b5b60006117f6858286016117bc565b925050602061180785828601611707565b9150509250929050565b60008060006060848603121561182a5761182961156f565b5b6000611838868287016117bc565b9350506020611849868287016117bc565b925050604061185a86828701611707565b9150509250925092565b60006020828403121561187a5761187961156f565b5b6000611888848285016117bc565b91505092915050565b61189a816116e6565b82525050565b60006020820190506118b56000830184611891565b92915050565b6118c4816115fe565b81146118cf57600080fd5b50565b6000813590506118e1816118bb565b92915050565b600080604083850312156118fe576118fd61156f565b5b600061190c858286016117bc565b925050602061191d858286016118d2565b9150509250929050565b600080fd5b600080fd5b7f4e487b7100000000000000000000000000000000000000000000000000000000600052604160045260246000fd5b6119698261167a565b810181811067ffffffffffffffff8211171561198857611987611931565b5b80604052505050565b600061199b611565565b90506119a78282611960565b919050565b600067ffffffffffffffff8211156119c7576119c6611931565b5b6119d08261167a565b9050602081019050919050565b82818337600083830152505050565b60006119ff6119fa846119ac565b611991565b905082815260208101848484011115611a1b57611a1a61192c565b5b611a268482856119dd565b509392505050565b600082601f830112611a4357611a42611927565b5b8135611a538482602086016119ec565b91505092915050565b60008060008060808587031215611a7657611a7561156f565b5b6000611a84878288016117bc565b9450506020611a95878288016117bc565b9350506040611aa687828801611707565b925050606085013567ffffffffffffffff811115611ac757611ac6611574565b5b611ad387828801611a2e565b91505092959194509250565b600067ffffffffffffffff821115611afa57611af9611931565b5b602082029050602081019050919050565b600080fd5b6000611b23611b1e84611adf565b611991565b90508083825260208201905060208402830185811115611b4657611b45611b0b565b5b835b81811015611b6f5780611b5b8882611707565b845260208401935050602081019050611b48565b5050509392505050565b600082601f830112611b8e57611b8d611927565b5b8135611b9e848260208601611b10565b91505092915050565b600060208284031215611bbd57611bbc61156f565b5b600082013567ffffffffffffffff811115611bdb57611bda611574565b5b611be784828501611b79565b91505092915050565b60008060408385031215611c0757611c0661156f565b5b6000611c15858286016117bc565b9250506020611c26858286016117bc565b9150509250929050565b7f4e487b7100000000000000000000000000000000000000000000000000000000600052602260045260246000fd5b60006002820490506001821680611c7757607f821691505b602082108103611c8a57611c89611c30565b5b50919050565b6000606082019050611ca5600083018661177b565b611cb26020830185611891565b611cbf604083018461177b565b949350505050565b7f4e487b7100000000000000000000000000000000000000000000000000000000600052603260045260246000fd5b7f4e6f74206f776e6572206f6620746f6b656e0000000000000000000000000000600082015250565b6000611d2c60128361163f565b9150611d3782611cf6565b602082019050919050565b60006020820190508181036000830152611d5b81611d1f565b9050919050565b600081905092915050565b6000611d7882611634565b611d828185611d62565b9350611d92818560208601611650565b80840191505092915050565b6000611daa8285611d6d565b9150611db68284611d6d565b91508190509392505050565b600081519050919050565b600082825260208201905092915050565b6000611de982611dc2565b611df38185611dcd565b9350611e03818560208601611650565b611e0c8161167a565b840191505092915050565b6000608082019050611e2c600083018761177b565b611e39602083018661177b565b611e466040830185611891565b8181036060830152611e588184611dde565b905095945050505050565b600081519050611e72816115a5565b92915050565b600060208284031215611e8e57611e8d61156f565b5b6000611e9c84828501611e63565b91505092915050565b7f4e487b7100000000000000000000000000000000000000000000000000000000600052601260045260246000fd5b6000604082019050611ee9600083018561177b565b611ef66020830184611891565b939250505056fea2646970667358221220076f0c5366b9f3de465feecffa107e8d5485de9fd034c9e6bbe7100eb3f40a1664736f6c634300081c0033",
  "linkReferences": {},
  "deployedLinkReferences": {}
}