{
  "_format": "hh-sol-artifact-1",
  "contractName": "TestToken",
  "sourceName": "contracts/TestToken.sol",
  "abi": [
    {
      "inputs": [
        {
          "internalType": "string",
          "name": "name",
          "type": "string"
        },
        {
          "internalType": "string",
          "name": "symbol",
          "type": "string"
        },
        {
          "internalType": "uint8",
          "name": "decimals",
          "type": "uint8"
        }
      ],
      "stateMutability": "nonpayable",
      "type": "constructor"
    },
    {
      "inputs": [
        {
          "internalType": "address",
          "name": "spender",
          "type": "address"
        },
        {
          "internalType": "uint256",
          "name": "allowance",
          "type": "uint256"
        },
        {
          "internalType": "uint256",
          "name": "needed",
          "type": "uint256"
        }
      ],
      "name": "ERC20InsufficientAllowance",
      "type": "error"
    },
    {
      "inputs": [
        {
          "internalType": "address",
          "name": "sender",
          "type": "address"
        },
        {
          "internalType": "uint256",
          "name": "balance",
          "type": "uint256"
        },
        {
          "internalType": "uint256",
          "name": "needed",
          "type": "uint256"
        }
      ],
      "name": "ERC20InsufficientBalance",
      "type": "error"
    },
    {
      "inputs": [
        {
          "internalType": "address",
          "name": "approver",
          "type": "address"
        }
      ],
      "name": "ERC20InvalidApprover",
      "type": "error"
    },
    {
      "inputs": [
        {
          "internalType": "address",
          "name": "receiver",
          "type": "address"
        }
      ],
      "name": "ERC20InvalidReceiver",
      "type": "error"
    },
    {
      "inputs": [
        {
          "internalType": "address",
          "name": "sender",
          "type": "address"
        }
      ],
      "name": "ERC20InvalidSender",
      "type": "error"
    },
    {
      "inputs": [
        {
          "internalType": "address",
          "name": "spender",
          "type": "address"
        }
      ],
      "name": "ERC20InvalidSpender",
      "type": "error"
    },
    {
      "anonymous": false,
      "inputs": [
        {
          "indexed": true,
          "internalType": "address",
          "name": "owner",
          "type": "address"
        },
        {
          "indexed": true,
          "internalType": "address",
          "name": "spender",
          "type": "address"
        },
        {
          "indexed": false,
          "internalType": "uint256",
          "name": "value",
          "type": "uint256"
        }
      ],
      "name": "Approval",
      "type": "event"
    },
    {
      "anonymous": false,
      "inputs": [
        {
          "indexed": true,
          "internalType": "address",
          "name": "from",
          "type": "address"
        },
        {
          "indexed": true,
          "internalType": "address",
          "name": "to",
          "type": "address"
        },
        {
          "indexed": false,
          "internalType": "uint256",
          "name": "value",
          "type": "uint256"
        }
      ],
      "name": "Transfer",
      "type": "event"
    },
    {
      "inputs": [
        {
          "internalType": "address",
          "name": "owner",
          "type": "address"
        },
        {
          "internalType": "address",
          "name": "spender",
          "type": "address"
        }
      ],
      "name": "allowance",
      "outputs": [
        {
          "internalType": "uint256",
          "name": "",
          "type": "uint256"
        }
      ],
      "stateMutability": "view",
      "type": "function"
    },
    {
      "inputs": [
        {
          "internalType": "address",
          "name": "spender",
          "type": "address"
        },
        {
          "internalType": "uint256",
          "name": "amount",
          "type": "uint256"
        }
      ],
      "name": "approve",
      "outputs": [
        {
          "internalType": "bool",
          "name": "",
          "type": "bool"
        }
      ],
      "stateMutability": "nonpayable",
      "type": "function"
    },
    {
      "inputs": [
        {
          "internalType": "address",
          "name": "account",
          "type": "address"
        }
      ],
      "name": "balanceOf",
      "outputs": [
        {
          "internalType": "uint256",
          "name": "",
          "type": "uint256"
        }
      ],
      "stateMutability": "view",
      "type": "function"
    },
    {
      "inputs": [],
      "name": "decimals",
      "outputs": [
        {
          "internalType": "uint8",
          "name": "",
          "type": "uint8"
        }
      ],
      "stateMutability": "view",
      "type": "function"
    },
    {
      "inputs": [
        {
          "internalType": "address",
          "name": "to",
          "type": "address"
        },
        {
          "internalType": "uint256",
          "name": "amount",
          "type": "uint256"
        }
      ],
      "name": "mint",
      "outputs": [],
      "stateMutability": "nonpayable",
      "type": "function"
    },
    {
      "inputs": [],
      "name": "name",
      "outputs": [
        {
          "internalType": "string",
          "name": "",
          "type": "string"
        }
      ],
      "stateMutability": "view",
      "type": "function"
    },
    {
      "inputs": [],
      "name": "owner",
      "outputs": [
        {
          "internalType": "address",
          "name": "",
          "type": "address"
        }
      ],
      "stateMutability": "view",
      "type": "function"
    },
    {
      "inputs": [],
      "name": "symbol",
      "outputs": [
        {
          "internalType": "string",
          "name": "",
          "type": "string"
        }
      ],
      "stateMutability": "view",
      "type": "function"
    },
    {
      "inputs": [],
      "name": "totalSupply",
      "outputs": [
        {
          "internalType": "uint256",
          "name": "",
          "type": "uint256"
        }
      ],
      "stateMutability": "view",
      "type": "function"
    },
    {
      "inputs": [
        {
          "internalType": "address",
          "name": "to",
          "type": "address"
        },
        {
          "internalType": "uint256",
          "name": "value",
          "type": "uint256"
        }
      ],
      "name": "transfer",
      "outputs": [
        {
          "internalType": "bool",
          "name": "",
          "type": "bool"
        }
      ],
      "stateMutability": "nonpayable",
      "type": "function"
    },
    {
      "inputs": [
        {
          "internalType": "address",
          "name": "from",
          "type": "address"
        },
        {
          "internalType": "address",
          "name": "to",
          "type": "address"
        },
        {
          "internalType": "uint256",
          "name": "value",
          "type": "uint256"
        }
      ],
      "name": "transferFrom",
      "outputs": [
        {
          "internalType": "bool",
          "name": "",
          "type": "bool"
        }
      ],
      "stateMutability": "nonpayable",
      "type": "function"
    }
  ],
  "bytecode": "0x608060405234801561001057600080fd5b50604051611bdd380380611bdd83398181016040528101906100329190610524565b8282816003908161004391906107d0565b50806004908161005391906107d0565b50505033600560006101000a81548173ffffffffffffffffffffffffffffffffffffffff021916908373ffffffffffffffffffffffffffffffffffffffff1602179055506100c13382600a6100a89190610a04565b620f42406100b69190610a4f565b6100c960201b60201c565b505050610b82565b600073ffffffffffffffffffffffffffffffffffffffff168273ffffffffffffffffffffffffffffffffffffffff160361013b5760006040517fec442f050000000000000000000000000000000000000000000000000000000081526004016101329190610ad2565b60405180910390fd5b61014d6000838361015160201b60201c565b5050565b600073ffffffffffffffffffffffffffffffffffffffff168373ffffffffffffffffffffffffffffffffffffffff16036101a35780600260008282546101979190610aed565b92505081905550610276565b60008060008573ffffffffffffffffffffffffffffffffffffffff1673ffffffffffffffffffffffffffffffffffffffff1681526020019081526020016000205490508181101561022f578381836040517fe450d38c00000000000000000000000000000000000000000000000000000000815260040161022693929190610b30565b60405180910390fd5b8181036000808673ffffffffffffffffffffffffffffffffffffffff1673ffffffffffffffffffffffffffffffffffffffff16815260200190815260200160002081905550505b600073ffffffffffffffffffffffffffffffffffffffff168273ffffffffffffffffffffffffffffffffffffffff16036102bf578060026000828254039250508190555061030c565b806000808473ffffffffffffffffffffffffffffffffffffffff1673ffffffffffffffffffffffffffffffffffffffff168152602001908152602001600020600082825401925050819055505b8173ffffffffffffffffffffffffffffffffffffffff168373ffffffffffffffffffffffffffffffffffffffff167fddf252ad1be2c89b69c2b068fc378daa952ba7f163c4a11628f55a4df523b3ef836040516103699190610b67565b60405180910390a3505050565b6000604051905090565b600080fd5b600080fd5b600080fd5b600080fd5b6000601f19601f8301169050919050565b7f4e487b7100000000000000000000000000000000000000000000000000000000600052604160045260246000fd5b6103dd82610394565b810181811067ffffffffffffffff821117156103fc576103fb6103a5565b5b80604052505050565b600061040f610376565b905061041b82826103d4565b919050565b600067ffffffffffffffff82111561043b5761043a6103a5565b5b61044482610394565b9050602081019050919050565b60005b8381101561046f578082015181840152602081019050610454565b60008484015250505050565b600061048e61048984610420565b610405565b9050828152602081018484840111156104aa576104a961038f565b5b6104b5848285610451565b509392505050565b600082601f8301126104d2576104d161038a565b5b81516104e284826020860161047b565b91505092915050565b600060ff82169050919050565b610501816104eb565b811461050c57600080fd5b50565b60008151905061051e816104f8565b92915050565b60008060006060848603121561053d5761053c610380565b5b600084015167ffffffffffffffff81111561055b5761055a610385565b5b610567868287016104bd565b935050602084015167ffffffffffffffff81111561058857610587610385565b5b610594868287016104bd565b92505060406105a58682870161050f565b9150509250925092565b600081519050919050565b7f4e487b7100000000000000000000000000000000000000000000000000000000600052602260045260246000fd5b6000600282049050600182168061060157607f821691505b602082108103610614576106136105ba565b5b50919050565b60008190508160005260206000209050919050565b60006020601f8301049050919050565b600082821b905092915050565b60006008830261067c7fffffffffffffffffffffffffffffffffffffffffffffffffffffffffffffffff8261063f565b610686868361063f565b95508019841693508086168417925050509392505050565b6000819050919050565b6000819050919050565b60006106cd6106c86106c38461069e565b6106a8565b61069e565b9050919050565b6000819050919050565b6106e7836106b2565b6106fb6106f3826106d4565b84845461064c565b825550505050565b600090565b610710610703565b61071b8184846106de565b505050565b5b8181101561073f57610734600082610708565b600181019050610721565b5050565b601f821115610784576107558161061a565b61075e8461062f565b8101602085101561076d578190505b6107816107798561062f565b830182610720565b50505b505050565b600082821c905092915050565b60006107a760001984600802610789565b1980831691505092915050565b60006107c08383610796565b9150826002028217905092915050565b6107d9826105af565b67ffffffffffffffff8111156107f2576107f16103a5565b5b6107fc82546105e9565b610807828285610743565b600060209050601f83116001811461083a5760008415610828578287015190505b61083285826107b4565b86555061089a565b601f1984166108488661061a565b60005b828110156108705784890151825560018201915060208501945060208101905061084b565b8683101561088d5784890151610889601f891682610796565b8355505b6001600288020188555050505b505050505050565b7f4e487b7100000000000000000000000000000000000000000000000000000000600052601160045260246000fd5b60008160011c9050919050565b6000808291508390505b600185111561092857808604811115610904576109036108a2565b5b60018516156109135780820291505b8081029050610921856108d1565b94506108e8565b94509492505050565b60008261094157600190506109fd565b8161094f57600090506109fd565b8160018114610965576002811461096f5761099e565b60019150506109fd565b60ff841115610981576109806108a2565b5b8360020a915084821115610998576109976108a2565b5b506109fd565b5060208310610133831016604e8410600b84101617156109d35782820a9050838111156109ce576109cd6108a2565b5b6109fd565b6109e084848460016108de565b925090508184048111156109f7576109f66108a2565b5b81810290505b9392505050565b6000610a0f8261069e565b9150610a1a836104eb565b9250610a477fffffffffffffffffffffffffffffffffffffffffffffffffffffffffffffffff8484610931565b905092915050565b6000610a5a8261069e565b9150610a658361069e565b9250828202610a738161069e565b91508282048414831517610a8a57610a896108a2565b5b5092915050565b600073ffffffffffffffffffffffffffffffffffffffff82169050919050565b6000610abc82610a91565b9050919050565b610acc81610ab1565b82525050565b6000602082019050610ae76000830184610ac3565b92915050565b6000610af88261069e565b9150610b038361069e565b9250828201905080821115610b1b57610b1a6108a2565b5b92915050565b610b2a8161069e565b82525050565b6000606082019050610b456000830186610ac3565b610b526020830185610b21565b610b5f6040830184610b21565b949350505050565b6000602082019050610b7c6000830184610b21565b92915050565b61104c80610b916000396000f3fe608060405234801561001057600080fd5b50600436106100a95760003560e01c806340c10f191161007157806340c10f191461016857806370a08231146101845780638da5cb5b146101b457806395d89b41146101d2578063a9059cbb146101f0578063dd62ed3e14610220576100a9565b806306fdde03146100ae578063095ea7b3146100cc57806318160ddd146100fc57806323b872dd1461011a578063313ce5671461014a575b600080fd5b6100b6610250565b6040516100c39190610c34565b60405180910390f35b6100e660048036038101906100e19190610cef565b6102e2565b6040516100f39190610d4a565b60405180910390f35b6101046102f9565b6040516101119190610d74565b60405180910390f35b610134600480360381019061012f9190610d8f565b610303565b6040516101419190610d4a565b60405180910390f35b610152610332565b60405161015f9190610dfe565b60405180910390f35b610182600480360381019061017d9190610cef565b61033b565b005b61019e60048036038101906101999190610e19565b6103d9565b6040516101ab9190610d74565b60405180910390f35b6101bc610421565b6040516101c99190610e55565b60405180910390f35b6101da610447565b6040516101e79190610c34565b60405180910390f35b61020a60048036038101906102059190610cef565b6104d9565b6040516102179190610d4a565b60405180910390f35b61023a60048036038101906102359190610e70565b6104fc565b6040516102479190610d74565b60405180910390f35b60606003805461025f90610edf565b80601f016020809104026020016040519081016040528092919081815260200182805461028b90610edf565b80156102d85780601f106102ad576101008083540402835291602001916102d8565b820191906000526020600020905b8154815290600101906020018083116102bb57829003601f168201915b5050505050905090565b60006102ef338484610583565b6001905092915050565b6000600254905090565b60008061030e610595565b905061031b85828561059d565b610326858585610632565b60019150509392505050565b60006012905090565b600560009054906101000a900473ffffffffffffffffffffffffffffffffffffffff1673ffffffffffffffffffffffffffffffffffffffff163373ffffffffffffffffffffffffffffffffffffffff16146103cb576040517f08c379a00000000000000000000000000000000000000000000000000000000081526004016103c290610f5c565b60405180910390fd5b6103d58282610726565b5050565b60008060008373ffffffffffffffffffffffffffffffffffffffff1673ffffffffffffffffffffffffffffffffffffffff168152602001908152602001600020549050919050565b600560009054906101000a900473ffffffffffffffffffffffffffffffffffffffff1681565b60606004805461045690610edf565b80601f016020809104026020016040519081016040528092919081815260200182805461048290610edf565b80156104cf5780601f106104a4576101008083540402835291602001916104cf565b820191906000526020600020905b8154815290600101906020018083116104b257829003601f168201915b5050505050905090565b6000806104e4610595565b90506104f1818585610632565b600191505092915050565b6000600160008473ffffffffffffffffffffffffffffffffffffffff1673ffffffffffffffffffffffffffffffffffffffff16815260200190815260200160002060008373ffffffffffffffffffffffffffffffffffffffff1673ffffffffffffffffffffffffffffffffffffffff16815260200190815260200160002054905092915050565b61059083838360016107a8565b505050565b600033905090565b60006105a984846104fc565b90507fffffffffffffffffffffffffffffffffffffffffffffffffffffffffffffffff81101561062c578181101561061c578281836040517ffb8f41b200000000000000000000000000000000000000000000000000000000815260040161061393929190610f7c565b60405180910390fd5b61062b848484840360006107a8565b5b50505050565b600073ffffffffffffffffffffffffffffffffffffffff168373ffffffffffffffffffffffffffffffffffffffff16036106a45760006040517f96c6fd1e00000000000000000000000000000000000000000000000000000000815260040161069b9190610e55565b60405180910390fd5b600073ffffffffffffffffffffffffffffffffffffffff168273ffffffffffffffffffffffffffffffffffffffff16036107165760006040517fec442f0500000000000000000000000000000000000000000000000000000000815260040161070d9190610e55565b60405180910390fd5b61072183838361097f565b505050565b600073ffffffffffffffffffffffffffffffffffffffff168273ffffffffffffffffffffffffffffffffffffffff16036107985760006040517fec442f0500000000000000000000000000000000000000000000000000000000815260040161078f9190610e55565b60405180910390fd5b6107a46000838361097f565b5050565b600073ffffffffffffffffffffffffffffffffffffffff168473ffffffffffffffffffffffffffffffffffffffff160361081a5760006040517fe602df050000000000000000000000000000000000000000000000000000000081526004016108119190610e55565b60405180910390fd5b600073ffffffffffffffffffffffffffffffffffffffff168373ffffffffffffffffffffffffffffffffffffffff160361088c5760006040517f94280d620000000000000000000000000000000000000000000000000000000081526004016108839190610e55565b60405180910390fd5b81600160008673ffffffffffffffffffffffffffffffffffffffff1673ffffffffffffffffffffffffffffffffffffffff16815260200190815260200160002060008573ffffffffffffffffffffffffffffffffffffffff1673ffffffffffffffffffffffffffffffffffffffff168152602001908152602001600020819055508015610979578273ffffffffffffffffffffffffffffffffffffffff168473ffffffffffffffffffffffffffffffffffffffff167f8c5be1e5ebec7d5bd14f71427d1e84f3dd0314c0f7b2291e5b200ac8c7c3b925846040516109709190610d74565b60405180910390a35b50505050565b600073ffffffffffffffffffffffffffffffffffffffff168373ffffffffffffffffffffffffffffffffffffffff16036109d15780600260008282546109c59190610fe2565b92505081905550610aa4565b60008060008573ffffffffffffffffffffffffffffffffffffffff1673ffffffffffffffffffffffffffffffffffffffff16815260200190815260200160002054905081811015610a5d578381836040517fe450d38c000000000000000000000000000000000000000000000000000000008152600401610a5493929190610f7c565b60405180910390fd5b8181036000808673ffffffffffffffffffffffffffffffffffffffff1673ffffffffffffffffffffffffffffffffffffffff16815260200190815260200160002081905550505b600073ffffffffffffffffffffffffffffffffffffffff168273ffffffffffffffffffffffffffffffffffffffff1603610aed5780600260008282540392505081905550610b3a565b806000808473ffffffffffffffffffffffffffffffffffffffff1673ffffffffffffffffffffffffffffffffffffffff168152602001908152602001600020600082825401925050819055505b8173ffffffffffffffffffffffffffffffffffffffff168373ffffffffffffffffffffffffffffffffffffffff167fddf252ad1be2c89b69c2b068fc378daa952ba7f163c4a11628f55a4df523b3ef83604051610b979190610d74565b60405180910390a3505050565b600081519050919050565b600082825260208201905092915050565b60005b83811015610bde578082015181840152602081019050610bc3565b60008484015250505050565b6000601f19601f8301169050919050565b6000610c0682610ba4565b610c108185610baf565b9350610c20818560208601610bc0565b610c2981610bea565b840191505092915050565b60006020820190508181036000830152610c4e8184610bfb565b905092915050565b600080fd5b600073ffffffffffffffffffffffffffffffffffffffff82169050919050565b6000610c8682610c5b565b9050919050565b610c9681610c7b565b8114610ca157600080fd5b50565b600081359050610cb381610c8d565b92915050565b6000819050919050565b610ccc81610cb9565b8114610cd757600080fd5b50565b600081359050610ce981610cc3565b92915050565b60008060408385031215610d0657610d05610c56565b5b6000610d1485828601610ca4565b9250506020610d2585828601610cda565b9150509250929050565b60008115159050919050565b610d4481610d2f565b82525050565b6000602082019050610d5f6000830184610d3b565b92915050565b610d6e81610cb9565b82525050565b6000602082019050610d896000830184610d65565b92915050565b600080600060608486031215610da857610da7610c56565b5b6000610db686828701610ca4565b9350506020610dc786828701610ca4565b9250506040610dd886828701610cda565b9150509250925092565b600060ff82169050919050565b610df881610de2565b82525050565b6000602082019050610e136000830184610def565b92915050565b600060208284031215610e2f57610e2e610c56565b5b6000610e3d84828501610ca4565b91505092915050565b610e4f81610c7b565b82525050565b6000602082019050610e6a6000830184610e46565b92915050565b60008060408385031215610e8757610e86610c56565b5b6000610e9585828601610ca4565b9250506020610ea685828601610ca4565b9150509250929050565b7f4e487b7100000000000000000000000000000000000000000000000000000000600052602260045260246000fd5b60006002820490506001821680610ef757607f821691505b602082108103610f0a57610f09610eb0565b5b50919050565b7f4e6f7420617574686f72697a6564000000000000000000000000000000000000600082015250565b6000610f46600e83610baf565b9150610f5182610f10565b602082019050919050565b60006020820190508181036000830152610f7581610f39565b9050919050565b6000606082019050610f916000830186610e46565b610f9e6020830185610d65565b610fab6040830184610d65565b949350505050565b7f4e487b7100000000000000000000000000000000000000000000000000000000600052601160045260246000fd5b6000610fed82610cb9565b9150610ff883610cb9565b92508282019050808211156110105761100f610fb3565b5b9291505056fea26469706673582212204757d6e5e84e0fd06d432dde8266b0ed3187389a246aa9adb4dd168421858cb364736f6c634300081c0033",
  "linkReferences": {},
  "deployedLinkReferences": {}
}