{
  "_format": "hh-sol-artifact-1",
  "contractName": "TestERC1155",
  "sourceName": "contracts/TestERC1155.sol",
  "abi": [
    {
      "inputs": [
        {
          "internalType": "address",
          "name": "initialOwner",
          "type": "address"
        }
      ],
      "stateMutability": "nonpayable",
      "type": "constructor"
    },
    {
      "inputs": [
        {
          "internalType": "address",
          "name": "sender",
          "type": "address"
        },
        {
          "internalType": "uint256",
          "name": "balance",
          "type": "uint256"
        },
        {
          "internalType": "uint256",
          "name": "needed",
          "type": "uint256"
        },
        {
          "internalType": "uint256",
          "name": "tokenId",
          "type": "uint256"
        }
      ],
      "name": "ERC1155InsufficientBalance",
      "type": "error"
    },
    {
      "inputs": [
        {
          "internalType": "address",
          "name": "approver",
          "type": "address"
        }
      ],
      "name": "ERC1155InvalidApprover",
      "type": "error"
    },
    {
      "inputs": [
        {
          "internalType": "uint256",
          "name": "idsLength",
          "type": "uint256"
        },
        {
          "internalType": "uint256",
          "name": "valuesLength",
          "type": "uint256"
        }
      ],
      "name": "ERC1155InvalidArrayLength",
      "type": "error"
    },
    {
      "inputs": [
        {
          "internalType": "address",
          "name": "operator",
          "type": "address"
        }
      ],
      "name": "ERC1155InvalidOperator",
      "type": "error"
    },
    {
      "inputs": [
        {
          "internalType": "address",
          "name": "receiver",
          "type": "address"
        }
      ],
      "name": "ERC1155InvalidReceiver",
      "type": "error"
    },
    {
      "inputs": [
        {
          "internalType": "address",
          "name": "sender",
          "type": "address"
        }
      ],
      "name": "ERC1155InvalidSender",
      "type": "error"
    },
    {
      "inputs": [
        {
          "internalType": "address",
          "name": "operator",
          "type": "address"
        },
        {
          "internalType": "address",
          "name": "owner",
          "type": "address"
        }
      ],
      "name": "ERC1155MissingApprovalForAll",
      "type": "error"
    },
    {
      "inputs": [
        {
          "internalType": "address",
          "name": "owner",
          "type": "address"
        }
      ],
      "name": "OwnableInvalidOwner",
      "type": "error"
    },
    {
      "inputs": [
        {
          "internalType": "address",
          "name": "account",
          "type": "address"
        }
      ],
      "name": "OwnableUnauthorizedAccount",
      "type": "error"
    },
    {
      "anonymous": false,
      "inputs": [
        {
          "indexed": true,
          "internalType": "address",
          "name": "account",
          "type": "address"
        },
        {
          "indexed": true,
          "internalType": "address",
          "name": "operator",
          "type": "address"
        },
        {
          "indexed": false,
          "internalType": "bool",
          "name": "approved",
          "type": "bool"
        }
      ],
      "name": "ApprovalForAll",
      "type": "event"
    },
    {
      "anonymous": false,
      "inputs": [
        {
          "indexed": true,
          "internalType": "address",
          "name": "previousOwner",
          "type": "address"
        },
        {
          "indexed": true,
          "internalType": "address",
          "name": "newOwner",
          "type": "address"
        }
      ],
      "name": "OwnershipTransferred",
      "type": "event"
    },
    {
      "anonymous": false,
      "inputs": [
        {
          "indexed": true,
          "internalType": "address",
          "name": "operator",
          "type": "address"
        },
        {
          "indexed": true,
          "internalType": "address",
          "name": "from",
          "type": "address"
        },
        {
          "indexed": true,
          "internalType": "address",
          "name": "to",
          "type": "address"
        },
        {
          "indexed": false,
          "internalType": "uint256[]",
          "name": "ids",
          "type": "uint256[]"
        },
        {
          "indexed": false,
          "internalType": "uint256[]",
          "name": "values",
          "type": "uint256[]"
        }
      ],
      "name": "TransferBatch",
      "type": "event"
    },
    {
      "anonymous": false,
      "inputs": [
        {
          "indexed": true,
          "internalType": "address",
          "name": "operator",
          "type": "address"
        },
        {
          "indexed": true,
          "internalType": "address",
          "name": "from",
          "type": "address"
        },
        {
          "indexed": true,
          "internalType": "address",
          "name": "to",
          "type": "address"
        },
        {
          "indexed": false,
          "internalType": "uint256",
          "name": "id",
          "type": "uint256"
        },
        {
          "indexed": false,
          "internalType": "uint256",
          "name": "value",
          "type": "uint256"
        }
      ],
      "name": "TransferSingle",
      "type": "event"
    },
    {
      "anonymous": false,
      "inputs": [
        {
          "indexed": false,
          "internalType": "string",
          "name": "value",
          "type": "string"
        },
        {
          "indexed": true,
          "internalType": "uint256",
          "name": "id",
          "type": "uint256"
        }
      ],
      "name": "URI",
      "type": "event"
    },
    {
      "inputs": [
        {
          "internalType": "address",
          "name": "account",
          "type": "address"
        },
        {
          "internalType": "uint256",
          "name": "id",
          "type": "uint256"
        }
      ],
      "name": "balanceOf",
      "outputs": [
        {
          "internalType": "uint256",
          "name": "",
          "type": "uint256"
        }
      ],
      "stateMutability": "view",
      "type": "function"
    },
    {
      "inputs": [
        {
          "internalType": "address[]",
          "name": "accounts",
          "type": "address[]"
        },
        {
          "internalType": "uint256[]",
          "name": "ids",
          "type": "uint256[]"
        }
      ],
      "name": "balanceOfBatch",
      "outputs": [
        {
          "internalType": "uint256[]",
          "name": "",
          "type": "uint256[]"
        }
      ],
      "stateMutability": "view",
      "type": "function"
    },
    {
      "inputs": [
        {
          "internalType": "address",
          "name": "account",
          "type": "address"
        },
        {
          "internalType": "address",
          "name": "operator",
          "type": "address"
        }
      ],
      "name": "isApprovedForAll",
      "outputs": [
        {
          "internalType": "bool",
          "name": "",
          "type": "bool"
        }
      ],
      "stateMutability": "view",
      "type": "function"
    },
    {
      "inputs": [
        {
          "internalType": "address",
          "name": "to",
          "type": "address"
        },
        {
          "internalType": "uint256",
          "name": "id",
          "type": "uint256"
        },
        {
          "internalType": "uint256",
          "name": "amount",
          "type": "uint256"
        }
      ],
      "name": "mint",
      "outputs": [],
      "stateMutability": "nonpayable",
      "type": "function"
    },
    {
      "inputs": [],
      "name": "owner",
      "outputs": [
        {
          "internalType": "address",
          "name": "",
          "type": "address"
        }
      ],
      "stateMutability": "view",
      "type": "function"
    },
    {
      "inputs": [],
      "name": "renounceOwnership",
      "outputs": [],
      "stateMutability": "nonpayable",
      "type": "function"
    },
    {
      "inputs": [
        {
          "internalType": "address",
          "name": "from",
          "type": "address"
        },
        {
          "internalType": "address",
          "name": "to",
          "type": "address"
        },
        {
          "internalType": "uint256[]",
          "name": "ids",
          "type": "uint256[]"
        },
        {
          "internalType": "uint256[]",
          "name": "values",
          "type": "uint256[]"
        },
        {
          "internalType": "bytes",
          "name": "data",
          "type": "bytes"
        }
      ],
      "name": "safeBatchTransferFrom",
      "outputs": [],
      "stateMutability": "nonpayable",
      "type": "function"
    },
    {
      "inputs": [
        {
          "internalType": "address",
          "name": "from",
          "type": "address"
        },
        {
          "internalType": "address",
          "name": "to",
          "type": "address"
        },
        {
          "internalType": "uint256",
          "name": "id",
          "type": "uint256"
        },
        {
          "internalType": "uint256",
          "name": "value",
          "type": "uint256"
        },
        {
          "internalType": "bytes",
          "name": "data",
          "type": "bytes"
        }
      ],
      "name": "safeTransferFrom",
      "outputs": [],
      "stateMutability": "nonpayable",
      "type": "function"
    },
    {
      "inputs": [
        {
          "internalType": "address",
          "name": "operator",
          "type": "address"
        },
        {
          "internalType": "bool",
          "name": "approved",
          "type": "bool"
        }
      ],
      "name": "setApprovalForAll",
      "outputs": [],
      "stateMutability": "nonpayable",
      "type": "function"
    },
    {
      "inputs": [
        {
          "internalType": "bytes4",
          "name": "interfaceId",
          "type": "bytes4"
        }
      ],
      "name": "supportsInterface",
      "outputs": [
        {
          "internalType": "bool",
          "name": "",
          "type": "bool"
        }
      ],
      "stateMutability": "view",
      "type": "function"
    },
    {
      "inputs": [
        {
          "internalType": "address",
          "name": "newOwner",
          "type": "address"
        }
      ],
      "name": "transferOwnership",
      "outputs": [],
      "stateMutability": "nonpayable",
      "type": "function"
    },
    {
      "inputs": [
        {
          "internalType": "uint256",
          "name": "",
          "type": "uint256"
        }
      ],
      "name": "uri",
      "outputs": [
        {
          "internalType": "string",
          "name": "",
          "type": "string"
        }
      ],
      "stateMutability": "view",
      "type": "function"
    }
  ],
  "bytecode": "0x608060405234801561001057600080fd5b5060405161356438038061356483398181016040528101906100329190610b37565b806040518060600160405280602a815260200161353a602a913961005b8161012a60201b60201c565b50600073ffffffffffffffffffffffffffffffffffffffff168173ffffffffffffffffffffffffffffffffffffffff16036100ce5760006040517f1e4fbdf70000000000000000000000000000000000000000000000000000000081526004016100c59190610b73565b60405180910390fd5b6100dd8161013d60201b60201c565b5061010181600160646040518060200160405280600081525061020360201b60201c565b61012481600260326040518060200160405280600081525061020360201b60201c565b5061125c565b80600290816101399190610dde565b5050565b6000600360009054906101000a900473ffffffffffffffffffffffffffffffffffffffff16905081600360006101000a81548173ffffffffffffffffffffffffffffffffffffffff021916908373ffffffffffffffffffffffffffffffffffffffff1602179055508173ffffffffffffffffffffffffffffffffffffffff168173ffffffffffffffffffffffffffffffffffffffff167f8be0079c531659141344cd1fd0a4f28419497f9722a3daafe3b4186f6b6457e060405160405180910390a35050565b600073ffffffffffffffffffffffffffffffffffffffff168473ffffffffffffffffffffffffffffffffffffffff16036102755760006040517f57f447ce00000000000000000000000000000000000000000000000000000000815260040161026c9190610b73565b60405180910390fd5b60008061028885856102a860201b60201c565b915091506102a06000878484876102d860201b60201c565b505050505050565b60608060405191506001825283602083015260408201905060018152826020820152604081016040529250929050565b6102ea858585856103a260201b60201c565b600073ffffffffffffffffffffffffffffffffffffffff168473ffffffffffffffffffffffffffffffffffffffff161461039b57600061032e61075060201b60201c565b9050600184510361038457600061034f60008661075860201b90919060201c565b9050600061036760008661075860201b90919060201c565b905061037d83898985858961076c60201b60201c565b5050610399565b61039881878787878761092060201b60201c565b5b505b5050505050565b80518251146103ec57815181516040517f5b0599910000000000000000000000000000000000000000000000000000000081526004016103e3929190610ebf565b60405180910390fd5b60006103fc61075060201b60201c565b905060005b835181101561060b57600061041f828661075860201b90919060201c565b90506000610436838661075860201b90919060201c565b9050600073ffffffffffffffffffffffffffffffffffffffff168873ffffffffffffffffffffffffffffffffffffffff161461056357600080600084815260200190815260200160002060008a73ffffffffffffffffffffffffffffffffffffffff1673ffffffffffffffffffffffffffffffffffffffff1681526020019081526020016000205490508181101561050b57888183856040517f03dee4c50000000000000000000000000000000000000000000000000000000081526004016105029493929190610ee8565b60405180910390fd5b81810360008085815260200190815260200160002060008b73ffffffffffffffffffffffffffffffffffffffff1673ffffffffffffffffffffffffffffffffffffffff16815260200190815260200160002081905550505b600073ffffffffffffffffffffffffffffffffffffffff168773ffffffffffffffffffffffffffffffffffffffff16146105fe578060008084815260200190815260200160002060008973ffffffffffffffffffffffffffffffffffffffff1673ffffffffffffffffffffffffffffffffffffffff16815260200190815260200160002060008282546105f69190610f5c565b925050819055505b5050806001019050610401565b5060018351036106ca57600061062b60008561075860201b90919060201c565b9050600061064360008561075860201b90919060201c565b90508573ffffffffffffffffffffffffffffffffffffffff168773ffffffffffffffffffffffffffffffffffffffff168473ffffffffffffffffffffffffffffffffffffffff167fc3d58168c5ae7397731d063d5bbf3d657854427343f4c083240f7aacaa2d0f6285856040516106bb929190610ebf565b60405180910390a45050610749565b8373ffffffffffffffffffffffffffffffffffffffff168573ffffffffffffffffffffffffffffffffffffffff168273ffffffffffffffffffffffffffffffffffffffff167f4a39dc06d4c0dbc64b70af90fd698a233a518aa5d07e595d983b8c0526c8f7fb868660405161074092919061104e565b60405180910390a45b5050505050565b600033905090565b600060208202602084010151905092915050565b60008473ffffffffffffffffffffffffffffffffffffffff163b1115610918578373ffffffffffffffffffffffffffffffffffffffff1663f23a6e6187878686866040518663ffffffff1660e01b81526004016107cd959493929190611115565b6020604051808303816000875af192505050801561080957506040513d601f19601f8201168201806040525081019061080691906111c7565b60015b61088d573d8060008114610839576040519150601f19603f3d011682016040523d82523d6000602084013e61083e565b606091505b50600081510361088557846040517f57f447ce00000000000000000000000000000000000000000000000000000000815260040161087c9190610b73565b60405180910390fd5b805181602001fd5b63f23a6e6160e01b7bffffffffffffffffffffffffffffffffffffffffffffffffffffffff1916817bffffffffffffffffffffffffffffffffffffffffffffffffffffffff19161461091657846040517f57f447ce00000000000000000000000000000000000000000000000000000000815260040161090d9190610b73565b60405180910390fd5b505b505050505050565b60008473ffffffffffffffffffffffffffffffffffffffff163b1115610acc578373ffffffffffffffffffffffffffffffffffffffff1663bc197c8187878686866040518663ffffffff1660e01b81526004016109819594939291906111f4565b6020604051808303816000875af19250505080156109bd57506040513d601f19601f820116820180604052508101906109ba91906111c7565b60015b610a41573d80600081146109ed576040519150601f19603f3d011682016040523d82523d6000602084013e6109f2565b606091505b506000815103610a3957846040517f57f447ce000000000000000000000000000000000000000000000000000000008152600401610a309190610b73565b60405180910390fd5b805181602001fd5b63bc197c8160e01b7bffffffffffffffffffffffffffffffffffffffffffffffffffffffff1916817bffffffffffffffffffffffffffffffffffffffffffffffffffffffff191614610aca57846040517f57f447ce000000000000000000000000000000000000000000000000000000008152600401610ac19190610b73565b60405180910390fd5b505b505050505050565b600080fd5b600073ffffffffffffffffffffffffffffffffffffffff82169050919050565b6000610b0482610ad9565b9050919050565b610b1481610af9565b8114610b1f57600080fd5b50565b600081519050610b3181610b0b565b92915050565b600060208284031215610b4d57610b4c610ad4565b5b6000610b5b84828501610b22565b91505092915050565b610b6d81610af9565b82525050565b6000602082019050610b886000830184610b64565b92915050565b600081519050919050565b7f4e487b7100000000000000000000000000000000000000000000000000000000600052604160045260246000fd5b7f4e487b7100000000000000000000000000000000000000000000000000000000600052602260045260246000fd5b60006002820490506001821680610c0f57607f821691505b602082108103610c2257610c21610bc8565b5b50919050565b60008190508160005260206000209050919050565b60006020601f8301049050919050565b600082821b905092915050565b600060088302610c8a7fffffffffffffffffffffffffffffffffffffffffffffffffffffffffffffffff82610c4d565b610c948683610c4d565b95508019841693508086168417925050509392505050565b6000819050919050565b6000819050919050565b6000610cdb610cd6610cd184610cac565b610cb6565b610cac565b9050919050565b6000819050919050565b610cf583610cc0565b610d09610d0182610ce2565b848454610c5a565b825550505050565b600090565b610d1e610d11565b610d29818484610cec565b505050565b5b81811015610d4d57610d42600082610d16565b600181019050610d2f565b5050565b601f821115610d9257610d6381610c28565b610d6c84610c3d565b81016020851015610d7b578190505b610d8f610d8785610c3d565b830182610d2e565b50505b505050565b600082821c905092915050565b6000610db560001984600802610d97565b1980831691505092915050565b6000610dce8383610da4565b9150826002028217905092915050565b610de782610b8e565b67ffffffffffffffff811115610e0057610dff610b99565b5b610e0a8254610bf7565b610e15828285610d51565b600060209050601f831160018114610e485760008415610e36578287015190505b610e408582610dc2565b865550610ea8565b601f198416610e5686610c28565b60005b82811015610e7e57848901518255600182019150602085019450602081019050610e59565b86831015610e9b5784890151610e97601f891682610da4565b8355505b6001600288020188555050505b505050505050565b610eb981610cac565b82525050565b6000604082019050610ed46000830185610eb0565b610ee16020830184610eb0565b9392505050565b6000608082019050610efd6000830187610b64565b610f0a6020830186610eb0565b610f176040830185610eb0565b610f246060830184610eb0565b95945050505050565b7f4e487b7100000000000000000000000000000000000000000000000000000000600052601160045260246000fd5b6000610f6782610cac565b9150610f7283610cac565b9250828201905080821115610f8a57610f89610f2d565b5b92915050565b600081519050919050565b600082825260208201905092915050565b6000819050602082019050919050565b610fc581610cac565b82525050565b6000610fd78383610fbc565b60208301905092915050565b6000602082019050919050565b6000610ffb82610f90565b6110058185610f9b565b935061101083610fac565b8060005b838110156110415781516110288882610fcb565b975061103383610fe3565b925050600181019050611014565b5085935050505092915050565b600060408201905081810360008301526110688185610ff0565b9050818103602083015261107c8184610ff0565b90509392505050565b600081519050919050565b600082825260208201905092915050565b60005b838110156110bf5780820151818401526020810190506110a4565b60008484015250505050565b6000601f19601f8301169050919050565b60006110e782611085565b6110f18185611090565b93506111018185602086016110a1565b61110a816110cb565b840191505092915050565b600060a08201905061112a6000830188610b64565b6111376020830187610b64565b6111446040830186610eb0565b6111516060830185610eb0565b818103608083015261116381846110dc565b90509695505050505050565b60007fffffffff0000000000000000000000000000000000000000000000000000000082169050919050565b6111a48161116f565b81146111af57600080fd5b50565b6000815190506111c18161119b565b92915050565b6000602082840312156111dd576111dc610ad4565b5b60006111eb848285016111b2565b91505092915050565b600060a0820190506112096000830188610b64565b6112166020830187610b64565b81810360408301526112288186610ff0565b9050818103606083015261123c8185610ff0565b9050818103608083015261125081846110dc565b90509695505050505050565b6122cf8061126b6000396000f3fe608060405234801561001057600080fd5b50600436106100b35760003560e01c8063715018a611610071578063715018a6146101b05780638da5cb5b146101ba578063a22cb465146101d8578063e985e9c5146101f4578063f242432a14610224578063f2fde38b14610240576100b3565b8062fdd58e146100b857806301ffc9a7146100e85780630e89341c14610118578063156e29f6146101485780632eb2c2d6146101645780634e1273f414610180575b600080fd5b6100d260048036038101906100cd91906116a8565b61025c565b6040516100df91906116f7565b60405180910390f35b61010260048036038101906100fd919061176a565b6102b6565b60405161010f91906117b2565b60405180910390f35b610132600480360381019061012d91906117cd565b610398565b60405161013f919061188a565b60405180910390f35b610162600480360381019061015d91906118ac565b61042c565b005b61017e60048036038101906101799190611afc565b610454565b005b61019a60048036038101906101959190611c8e565b6104fc565b6040516101a79190611dc4565b60405180910390f35b6101b8610605565b005b6101c2610619565b6040516101cf9190611df5565b60405180910390f35b6101f260048036038101906101ed9190611e3c565b610643565b005b61020e60048036038101906102099190611e7c565b610659565b60405161021b91906117b2565b60405180910390f35b61023e60048036038101906102399190611ebc565b6106ed565b005b61025a60048036038101906102559190611f53565b610795565b005b600080600083815260200190815260200160002060008473ffffffffffffffffffffffffffffffffffffffff1673ffffffffffffffffffffffffffffffffffffffff16815260200190815260200160002054905092915050565b60007fd9b67a26000000000000000000000000000000000000000000000000000000007bffffffffffffffffffffffffffffffffffffffffffffffffffffffff1916827bffffffffffffffffffffffffffffffffffffffffffffffffffffffff1916148061038157507f0e89341c000000000000000000000000000000000000000000000000000000007bffffffffffffffffffffffffffffffffffffffffffffffffffffffff1916827bffffffffffffffffffffffffffffffffffffffffffffffffffffffff1916145b8061039157506103908261081b565b5b9050919050565b6060600280546103a790611faf565b80601f01602080910402602001604051908101604052809291908181526020018280546103d390611faf565b80156104205780601f106103f557610100808354040283529160200191610420565b820191906000526020600020905b81548152906001019060200180831161040357829003601f168201915b50505050509050919050565b610434610885565b61044f8383836040518060200160405280600081525061090c565b505050565b600061045e6109a5565b90508073ffffffffffffffffffffffffffffffffffffffff168673ffffffffffffffffffffffffffffffffffffffff16141580156104a357506104a18682610659565b155b156104e75780866040517fe237d9220000000000000000000000000000000000000000000000000000000081526004016104de929190611fe0565b60405180910390fd5b6104f486868686866109ad565b505050505050565b6060815183511461054857815183516040517f5b05999100000000000000000000000000000000000000000000000000000000815260040161053f929190612009565b60405180910390fd5b6000835167ffffffffffffffff81111561056557610564611904565b5b6040519080825280602002602001820160405280156105935781602001602082028036833780820191505090505b50905060005b84518110156105fa576105d06105b88287610aa590919063ffffffff16565b6105cb8387610ab990919063ffffffff16565b61025c565b8282815181106105e3576105e2612032565b5b602002602001018181525050806001019050610599565b508091505092915050565b61060d610885565b6106176000610acd565b565b6000600360009054906101000a900473ffffffffffffffffffffffffffffffffffffffff16905090565b61065561064e6109a5565b8383610b93565b5050565b6000600160008473ffffffffffffffffffffffffffffffffffffffff1673ffffffffffffffffffffffffffffffffffffffff16815260200190815260200160002060008373ffffffffffffffffffffffffffffffffffffffff1673ffffffffffffffffffffffffffffffffffffffff16815260200190815260200160002060009054906101000a900460ff16905092915050565b60006106f76109a5565b90508073ffffffffffffffffffffffffffffffffffffffff168673ffffffffffffffffffffffffffffffffffffffff161415801561073c575061073a8682610659565b155b156107805780866040517fe237d922000000000000000000000000000000000000000000000000000000008152600401610777929190611fe0565b60405180910390fd5b61078d8686868686610d03565b505050505050565b61079d610885565b600073ffffffffffffffffffffffffffffffffffffffff168173ffffffffffffffffffffffffffffffffffffffff160361080f5760006040517f1e4fbdf70000000000000000000000000000000000000000000000000000000081526004016108069190611df5565b60405180910390fd5b61081881610acd565b50565b60007f01ffc9a7000000000000000000000000000000000000000000000000000000007bffffffffffffffffffffffffffffffffffffffffffffffffffffffff1916827bffffffffffffffffffffffffffffffffffffffffffffffffffffffff1916149050919050565b61088d6109a5565b73ffffffffffffffffffffffffffffffffffffffff166108ab610619565b73ffffffffffffffffffffffffffffffffffffffff161461090a576108ce6109a5565b6040517f118cdaa70000000000000000000000000000000000000000000000000000000081526004016109019190611df5565b60405180910390fd5b565b600073ffffffffffffffffffffffffffffffffffffffff168473ffffffffffffffffffffffffffffffffffffffff160361097e5760006040517f57f447ce0000000000000000000000000000000000000000000000000000000081526004016109759190611df5565b60405180910390fd5b60008061098b8585610e0e565b9150915061099d600087848487610e3e565b505050505050565b600033905090565b600073ffffffffffffffffffffffffffffffffffffffff168473ffffffffffffffffffffffffffffffffffffffff1603610a1f5760006040517f57f447ce000000000000000000000000000000000000000000000000000000008152600401610a169190611df5565b60405180910390fd5b600073ffffffffffffffffffffffffffffffffffffffff168573ffffffffffffffffffffffffffffffffffffffff1603610a915760006040517f01a83514000000000000000000000000000000000000000000000000000000008152600401610a889190611df5565b60405180910390fd5b610a9e8585858585610e3e565b5050505050565b600060208202602084010151905092915050565b600060208202602084010151905092915050565b6000600360009054906101000a900473ffffffffffffffffffffffffffffffffffffffff16905081600360006101000a81548173ffffffffffffffffffffffffffffffffffffffff021916908373ffffffffffffffffffffffffffffffffffffffff1602179055508173ffffffffffffffffffffffffffffffffffffffff168173ffffffffffffffffffffffffffffffffffffffff167f8be0079c531659141344cd1fd0a4f28419497f9722a3daafe3b4186f6b6457e060405160405180910390a35050565b600073ffffffffffffffffffffffffffffffffffffffff168273ffffffffffffffffffffffffffffffffffffffff1603610c055760006040517fced3e100000000000000000000000000000000000000000000000000000000008152600401610bfc9190611df5565b60405180910390fd5b80600160008573ffffffffffffffffffffffffffffffffffffffff1673ffffffffffffffffffffffffffffffffffffffff16815260200190815260200160002060008473ffffffffffffffffffffffffffffffffffffffff1673ffffffffffffffffffffffffffffffffffffffff16815260200190815260200160002060006101000a81548160ff0219169083151502179055508173ffffffffffffffffffffffffffffffffffffffff168373ffffffffffffffffffffffffffffffffffffffff167f17307eab39ab6107e8899845ad3d59bd9653f200f220920489ca2b5937696c3183604051610cf691906117b2565b60405180910390a3505050565b600073ffffffffffffffffffffffffffffffffffffffff168473ffffffffffffffffffffffffffffffffffffffff1603610d755760006040517f57f447ce000000000000000000000000000000000000000000000000000000008152600401610d6c9190611df5565b60405180910390fd5b600073ffffffffffffffffffffffffffffffffffffffff168573ffffffffffffffffffffffffffffffffffffffff1603610de75760006040517f01a83514000000000000000000000000000000000000000000000000000000008152600401610dde9190611df5565b60405180910390fd5b600080610df48585610e0e565b91509150610e058787848487610e3e565b50505050505050565b60608060405191506001825283602083015260408201905060018152826020820152604081016040529250929050565b610e4a85858585610ef0565b600073ffffffffffffffffffffffffffffffffffffffff168473ffffffffffffffffffffffffffffffffffffffff1614610ee9576000610e886109a5565b90506001845103610ed8576000610ea9600086610ab990919063ffffffff16565b90506000610ec1600086610ab990919063ffffffff16565b9050610ed1838989858589611298565b5050610ee7565b610ee681878787878761144c565b5b505b5050505050565b8051825114610f3a57815181516040517f5b059991000000000000000000000000000000000000000000000000000000008152600401610f31929190612009565b60405180910390fd5b6000610f446109a5565b905060005b8351811015611153576000610f678286610ab990919063ffffffff16565b90506000610f7e8386610ab990919063ffffffff16565b9050600073ffffffffffffffffffffffffffffffffffffffff168873ffffffffffffffffffffffffffffffffffffffff16146110ab57600080600084815260200190815260200160002060008a73ffffffffffffffffffffffffffffffffffffffff1673ffffffffffffffffffffffffffffffffffffffff1681526020019081526020016000205490508181101561105357888183856040517f03dee4c500000000000000000000000000000000000000000000000000000000815260040161104a9493929190612061565b60405180910390fd5b81810360008085815260200190815260200160002060008b73ffffffffffffffffffffffffffffffffffffffff1673ffffffffffffffffffffffffffffffffffffffff16815260200190815260200160002081905550505b600073ffffffffffffffffffffffffffffffffffffffff168773ffffffffffffffffffffffffffffffffffffffff1614611146578060008084815260200190815260200160002060008973ffffffffffffffffffffffffffffffffffffffff1673ffffffffffffffffffffffffffffffffffffffff168152602001908152602001600020600082825461113e91906120d5565b925050819055505b5050806001019050610f49565b506001835103611212576000611173600085610ab990919063ffffffff16565b9050600061118b600085610ab990919063ffffffff16565b90508573ffffffffffffffffffffffffffffffffffffffff168773ffffffffffffffffffffffffffffffffffffffff168473ffffffffffffffffffffffffffffffffffffffff167fc3d58168c5ae7397731d063d5bbf3d657854427343f4c083240f7aacaa2d0f628585604051611203929190612009565b60405180910390a45050611291565b8373ffffffffffffffffffffffffffffffffffffffff168573ffffffffffffffffffffffffffffffffffffffff168273ffffffffffffffffffffffffffffffffffffffff167f4a39dc06d4c0dbc64b70af90fd698a233a518aa5d07e595d983b8c0526c8f7fb8686604051611288929190612109565b60405180910390a45b5050505050565b60008473ffffffffffffffffffffffffffffffffffffffff163b1115611444578373ffffffffffffffffffffffffffffffffffffffff1663f23a6e6187878686866040518663ffffffff1660e01b81526004016112f9959493929190612195565b6020604051808303816000875af192505050801561133557506040513d601f19601f820116820180604052508101906113329190612204565b60015b6113b9573d8060008114611365576040519150601f19603f3d011682016040523d82523d6000602084013e61136a565b606091505b5060008151036113b157846040517f57f447ce0000000000000000000000000000000000000000000000000000000081526004016113a89190611df5565b60405180910390fd5b805181602001fd5b63f23a6e6160e01b7bffffffffffffffffffffffffffffffffffffffffffffffffffffffff1916817bffffffffffffffffffffffffffffffffffffffffffffffffffffffff19161461144257846040517f57f447ce0000000000000000000000000000000000000000000000000000000081526004016114399190611df5565b60405180910390fd5b505b505050505050565b60008473ffffffffffffffffffffffffffffffffffffffff163b11156115f8578373ffffffffffffffffffffffffffffffffffffffff1663bc197c8187878686866040518663ffffffff1660e01b81526004016114ad959493929190612231565b6020604051808303816000875af19250505080156114e957506040513d601f19601f820116820180604052508101906114e69190612204565b60015b61156d573d8060008114611519576040519150601f19603f3d011682016040523d82523d6000602084013e61151e565b606091505b50600081510361156557846040517f57f447ce00000000000000000000000000000000000000000000000000000000815260040161155c9190611df5565b60405180910390fd5b805181602001fd5b63bc197c8160e01b7bffffffffffffffffffffffffffffffffffffffffffffffffffffffff1916817bffffffffffffffffffffffffffffffffffffffffffffffffffffffff1916146115f657846040517f57f447ce0000000000000000000000000000000000000000000000000000000081526004016115ed9190611df5565b60405180910390fd5b505b505050505050565b6000604051905090565b600080fd5b600080fd5b600073ffffffffffffffffffffffffffffffffffffffff82169050919050565b600061163f82611614565b9050919050565b61164f81611634565b811461165a57600080fd5b50565b60008135905061166c81611646565b92915050565b6000819050919050565b61168581611672565b811461169057600080fd5b50565b6000813590506116a28161167c565b92915050565b600080604083850312156116bf576116be61160a565b5b60006116cd8582860161165d565b92505060206116de85828601611693565b9150509250929050565b6116f181611672565b82525050565b600060208201905061170c60008301846116e8565b92915050565b60007fffffffff0000000000000000000000000000000000000000000000000000000082169050919050565b61174781611712565b811461175257600080fd5b50565b6000813590506117648161173e565b92915050565b6000602082840312156117805761177f61160a565b5b600061178e84828501611755565b91505092915050565b60008115159050919050565b6117ac81611797565b82525050565b60006020820190506117c760008301846117a3565b92915050565b6000602082840312156117e3576117e261160a565b5b60006117f184828501611693565b91505092915050565b600081519050919050565b600082825260208201905092915050565b60005b83811015611834578082015181840152602081019050611819565b60008484015250505050565b6000601f19601f8301169050919050565b600061185c826117fa565b6118668185611805565b9350611876818560208601611816565b61187f81611840565b840191505092915050565b600060208201905081810360008301526118a48184611851565b905092915050565b6000806000606084860312156118c5576118c461160a565b5b60006118d38682870161165d565b93505060206118e486828701611693565b92505060406118f586828701611693565b9150509250925092565b600080fd5b7f4e487b7100000000000000000000000000000000000000000000000000000000600052604160045260246000fd5b61193c82611840565b810181811067ffffffffffffffff8211171561195b5761195a611904565b5b80604052505050565b600061196e611600565b905061197a8282611933565b919050565b600067ffffffffffffffff82111561199a57611999611904565b5b602082029050602081019050919050565b600080fd5b60006119c36119be8461197f565b611964565b905080838252602082019050602084028301858111156119e6576119e56119ab565b5b835b81811015611a0f57806119fb8882611693565b8452602084019350506020810190506119e8565b5050509392505050565b600082601f830112611a2e57611a2d6118ff565b5b8135611a3e8482602086016119b0565b91505092915050565b600080fd5b600067ffffffffffffffff821115611a6757611a66611904565b5b611a7082611840565b9050602081019050919050565b82818337600083830152505050565b6000611a9f611a9a84611a4c565b611964565b905082815260208101848484011115611abb57611aba611a47565b5b611ac6848285611a7d565b509392505050565b600082601f830112611ae357611ae26118ff565b5b8135611af3848260208601611a8c565b91505092915050565b600080600080600060a08688031215611b1857611b1761160a565b5b6000611b268882890161165d565b9550506020611b378882890161165d565b945050604086013567ffffffffffffffff811115611b5857611b5761160f565b5b611b6488828901611a19565b935050606086013567ffffffffffffffff811115611b8557611b8461160f565b5b611b9188828901611a19565b925050608086013567ffffffffffffffff811115611bb257611bb161160f565b5b611bbe88828901611ace565b9150509295509295909350565b600067ffffffffffffffff821115611be657611be5611904565b5b602082029050602081019050919050565b6000611c0a611c0584611bcb565b611964565b90508083825260208201905060208402830185811115611c2d57611c2c6119ab565b5b835b81811015611c565780611c42888261165d565b845260208401935050602081019050611c2f565b5050509392505050565b600082601f830112611c7557611c746118ff565b5b8135611c85848260208601611bf7565b91505092915050565b60008060408385031215611ca557611ca461160a565b5b600083013567ffffffffffffffff811115611cc357611cc261160f565b5b611ccf85828601611c60565b925050602083013567ffffffffffffffff811115611cf057611cef61160f565b5b611cfc85828601611a19565b9150509250929050565b600081519050919050565b600082825260208201905092915050565b6000819050602082019050919050565b611d3b81611672565b82525050565b6000611d4d8383611d32565b60208301905092915050565b6000602082019050919050565b6000611d7182611d06565b611d7b8185611d11565b9350611d8683611d22565b8060005b83811015611db7578151611d9e8882611d41565b9750611da983611d59565b925050600181019050611d8a565b5085935050505092915050565b60006020820190508181036000830152611dde8184611d66565b905092915050565b611def81611634565b82525050565b6000602082019050611e0a6000830184611de6565b92915050565b611e1981611797565b8114611e2457600080fd5b50565b600081359050611e3681611e10565b92915050565b60008060408385031215611e5357611e5261160a565b5b6000611e618582860161165d565b9250506020611e7285828601611e27565b9150509250929050565b60008060408385031215611e9357611e9261160a565b5b6000611ea18582860161165d565b9250506020611eb28582860161165d565b9150509250929050565b600080600080600060a08688031215611ed857611ed761160a565b5b6000611ee68882890161165d565b9550506020611ef78882890161165d565b9450506040611f0888828901611693565b9350506060611f1988828901611693565b925050608086013567ffffffffffffffff811115611f3a57611f3961160f565b5b611f4688828901611ace565b9150509295509295909350565b600060208284031215611f6957611f6861160a565b5b6000611f778482850161165d565b91505092915050565b7f4e487b7100000000000000000000000000000000000000000000000000000000600052602260045260246000fd5b60006002820490506001821680611fc757607f821691505b602082108103611fda57611fd9611f80565b5b50919050565b6000604082019050611ff56000830185611de6565b6120026020830184611de6565b9392505050565b600060408201905061201e60008301856116e8565b61202b60208301846116e8565b9392505050565b7f4e487b7100000000000000000000000000000000000000000000000000000000600052603260045260246000fd5b60006080820190506120766000830187611de6565b61208360208301866116e8565b61209060408301856116e8565b61209d60608301846116e8565b95945050505050565b7f4e487b7100000000000000000000000000000000000000000000000000000000600052601160045260246000fd5b60006120e082611672565b91506120eb83611672565b9250828201905080821115612103576121026120a6565b5b92915050565b600060408201905081810360008301526121238185611d66565b905081810360208301526121378184611d66565b90509392505050565b600081519050919050565b600082825260208201905092915050565b600061216782612140565b612171818561214b565b9350612181818560208601611816565b61218a81611840565b840191505092915050565b600060a0820190506121aa6000830188611de6565b6121b76020830187611de6565b6121c460408301866116e8565b6121d160608301856116e8565b81810360808301526121e3818461215c565b90509695505050505050565b6000815190506121fe8161173e565b92915050565b60006020828403121561221a5761221961160a565b5b6000612228848285016121ef565b91505092915050565b600060a0820190506122466000830188611de6565b6122536020830187611de6565b81810360408301526122658186611d66565b905081810360608301526122798185611d66565b9050818103608083015261228d818461215c565b9050969550505050505056fea26469706673582212207aa517e2cbdb89a1f76300c035fd20cdbcfca3bae915bf27647f19c68e59c14264736f6c634300081c003368747470733a2f2f6170692e6578616d706c652e636f6d2f6d657461646174612f7b69647d2e6a736f6e",
  "linkReferences": {},
  "deployedLinkReferences": {}
}