{
  "_format": "hh-sol-artifact-1",
  "contractName": "TokenAllowanceManager",
  "sourceName": "contracts/TokenAllowanceManager.sol",
  "abi": [
    {
      "anonymous": false,
      "inputs": [
        {
          "indexed": true,
          "internalType": "address",
          "name": "token",
          "type": "address"
        },
        {
          "indexed": true,
          "internalType": "address",
          "name": "owner",
          "type": "address"
        },
        {
          "indexed": true,
          "internalType": "address",
          "name": "spender",
          "type": "address"
        },
        {
          "indexed": false,
          "internalType": "uint256",
          "name": "amount",
          "type": "uint256"
        }
      ],
      "name": "AllowanceUpdated",
      "type": "event"
    },
    {
      "inputs": [
        {
          "internalType": "address",
          "name": "token",
          "type": "address"
        },
        {
          "internalType": "address",
          "name": "owner",
          "type": "address"
        },
        {
          "internalType": "address",
          "name": "spender",
          "type": "address"
        }
      ],
      "name": "getAllowance",
      "outputs": [
        {
          "internalType": "uint256",
          "name": "",
          "type": "uint256"
        }
      ],
      "stateMutability": "view",
      "type": "function"
    },
    {
      "inputs": [
        {
          "internalType": "address",
          "name": "token",
          "type": "address"
        },
        {
          "internalType": "address",
          "name": "spender",
          "type": "address"
        }
      ],
      "name": "revokeAllowance",
      "outputs": [],
      "stateMutability": "nonpayable",
      "type": "function"
    },
    {
      "inputs": [
        {
          "internalType": "address",
          "name": "token",
          "type": "address"
        },
        {
          "internalType": "address",
          "name": "spender",
          "type": "address"
        },
        {
          "internalType": "uint256",
          "name": "amount",
          "type": "uint256"
        }
      ],
      "name": "setAllowance",
      "outputs": [],
      "stateMutability": "nonpayable",
      "type": "function"
    }
  ],
  "bytecode": "0x6080604052348015600f57600080fd5b506109548061001f6000396000f3fe608060405234801561001057600080fd5b50600436106100415760003560e01c80637ae2677314610046578063da46098c14610062578063e7092b411461007e575b600080fd5b610060600480360381019061005b91906104d7565b6100ae565b005b61007c6004803603810190610077919061054d565b6101ed565b005b610098600480360381019061009391906105a0565b6103ed565b6040516100a59190610602565b60405180910390f35b8173ffffffffffffffffffffffffffffffffffffffff1663095ea7b38260006040518363ffffffff1660e01b81526004016100ea929190610671565b6020604051808303816000875af1158015610109573d6000803e3d6000fd5b505050506040513d601f19601f8201168201806040525081019061012d91906106d2565b61016c576040517f08c379a00000000000000000000000000000000000000000000000000000000081526004016101639061075c565b60405180910390fd5b8073ffffffffffffffffffffffffffffffffffffffff163373ffffffffffffffffffffffffffffffffffffffff168373ffffffffffffffffffffffffffffffffffffffff167f128311759eb518f0f0e09cd0432a36b7209f72c2452f680938715b57259ac0ea60006040516101e1919061077c565b60405180910390a45050565b6000839050818173ffffffffffffffffffffffffffffffffffffffff166370a08231336040518263ffffffff1660e01b815260040161022c9190610797565b602060405180830381865afa158015610249573d6000803e3d6000fd5b505050506040513d601f19601f8201168201806040525081019061026d91906107c7565b10156102ae576040517f08c379a00000000000000000000000000000000000000000000000000000000081526004016102a590610840565b60405180910390fd5b8073ffffffffffffffffffffffffffffffffffffffff1663095ea7b384846040518363ffffffff1660e01b81526004016102e9929190610860565b6020604051808303816000875af1158015610308573d6000803e3d6000fd5b505050506040513d601f19601f8201168201806040525081019061032c91906106d2565b61036b576040517f08c379a0000000000000000000000000000000000000000000000000000000008152600401610362906108d5565b60405180910390fd5b8273ffffffffffffffffffffffffffffffffffffffff163373ffffffffffffffffffffffffffffffffffffffff168573ffffffffffffffffffffffffffffffffffffffff167f128311759eb518f0f0e09cd0432a36b7209f72c2452f680938715b57259ac0ea856040516103df9190610602565b60405180910390a450505050565b60008373ffffffffffffffffffffffffffffffffffffffff1663dd62ed3e84846040518363ffffffff1660e01b815260040161042a9291906108f5565b602060405180830381865afa158015610447573d6000803e3d6000fd5b505050506040513d601f19601f8201168201806040525081019061046b91906107c7565b90509392505050565b600080fd5b600073ffffffffffffffffffffffffffffffffffffffff82169050919050565b60006104a482610479565b9050919050565b6104b481610499565b81146104bf57600080fd5b50565b6000813590506104d1816104ab565b92915050565b600080604083850312156104ee576104ed610474565b5b60006104fc858286016104c2565b925050602061050d858286016104c2565b9150509250929050565b6000819050919050565b61052a81610517565b811461053557600080fd5b50565b60008135905061054781610521565b92915050565b60008060006060848603121561056657610565610474565b5b6000610574868287016104c2565b9350506020610585868287016104c2565b925050604061059686828701610538565b9150509250925092565b6000806000606084860312156105b9576105b8610474565b5b60006105c7868287016104c2565b93505060206105d8868287016104c2565b92505060406105e9868287016104c2565b9150509250925092565b6105fc81610517565b82525050565b600060208201905061061760008301846105f3565b92915050565b61062681610499565b82525050565b6000819050919050565b6000819050919050565b600061065b6106566106518461062c565b610636565b610517565b9050919050565b61066b81610640565b82525050565b6000604082019050610686600083018561061d565b6106936020830184610662565b9392505050565b60008115159050919050565b6106af8161069a565b81146106ba57600080fd5b50565b6000815190506106cc816106a6565b92915050565b6000602082840312156106e8576106e7610474565b5b60006106f6848285016106bd565b91505092915050565b600082825260208201905092915050565b7f5265766f6b65206661696c656400000000000000000000000000000000000000600082015250565b6000610746600d836106ff565b915061075182610710565b602082019050919050565b6000602082019050818103600083015261077581610739565b9050919050565b60006020820190506107916000830184610662565b92915050565b60006020820190506107ac600083018461061d565b92915050565b6000815190506107c181610521565b92915050565b6000602082840312156107dd576107dc610474565b5b60006107eb848285016107b2565b91505092915050565b7f496e73756666696369656e7420746f6b656e2062616c616e6365000000000000600082015250565b600061082a601a836106ff565b9150610835826107f4565b602082019050919050565b600060208201905081810360008301526108598161081d565b9050919050565b6000604082019050610875600083018561061d565b61088260208301846105f3565b9392505050565b7f417070726f76616c206661696c65640000000000000000000000000000000000600082015250565b60006108bf600f836106ff565b91506108ca82610889565b602082019050919050565b600060208201905081810360008301526108ee816108b2565b9050919050565b600060408201905061090a600083018561061d565b610917602083018461061d565b939250505056fea2646970667358221220442502e49651d76142528e7a0ecba0ae1bd2bdd1834323e4b0d4b320773c46d664736f6c634300081c0033",
  "linkReferences": {},
  "deployedLinkReferences": {}
}