{
  "_format": "hh-sol-artifact-1",
  "contractName": "TokenAllowanceManager",
  "sourceName": "contracts/TokenAllowanceManager.sol",
  "abi": [
    {
      "anonymous": false,
      "inputs": [
        {
          "indexed": true,
          "internalType": "address",
          "name": "token",
          "type": "address"
        },
        {
          "indexed": true,
          "internalType": "address",
          "name": "owner",
          "type": "address"
        },
        {
          "indexed": true,
          "internalType": "address",
          "name": "spender",
          "type": "address"
        },
        {
          "indexed": false,
          "internalType": "uint256",
          "name": "amount",
          "type": "uint256"
        }
      ],
      "name": "AllowanceUpdated",
      "type": "event"
    },
    {
      "inputs": [
        {
          "internalType": "address",
          "name": "token",
          "type": "address"
        },
        {
          "internalType": "address",
          "name": "owner",
          "type": "address"
        },
        {
          "internalType": "address",
          "name": "spender",
          "type": "address"
        }
      ],
      "name": "getAllowance",
      "outputs": [
        {
          "internalType": "uint256",
          "name": "",
          "type": "uint256"
        }
      ],
      "stateMutability": "view",
      "type": "function"
    },
    {
      "inputs": [
        {
          "internalType": "address",
          "name": "token",
          "type": "address"
        },
        {
          "internalType": "address",
          "name": "spender",
          "type": "address"
        }
      ],
      "name": "revokeAllowance",
      "outputs": [],
      "stateMutability": "nonpayable",
      "type": "function"
    },
    {
      "inputs": [
        {
          "internalType": "address",
          "name": "token",
          "type": "address"
        },
        {
          "internalType": "address",
          "name": "spender",
          "type": "address"
        },
        {
          "internalType": "uint256",
          "name": "amount",
          "type": "uint256"
        }
      ],
      "name": "setAllowance",
      "outputs": [],
      "stateMutability": "nonpayable",
      "type": "function"
    }
  ],
  "bytecode": "0x6080604052348015600f57600080fd5b506109328061001f6000396000f3fe608060405234801561001057600080fd5b50600436106100415760003560e01c80637ae2677314610046578063da46098c14610062578063e7092b411461007e575b600080fd5b610060600480360381019061005b91906104de565b6100ae565b005b61007c60048036038101906100779190610554565b6102b1565b005b610098600480360381019061009391906105a7565b6103f4565b6040516100a59190610609565b60405180910390f35b600082905060008173ffffffffffffffffffffffffffffffffffffffff1663dd62ed3e33856040518363ffffffff1660e01b81526004016100f0929190610633565b602060405180830381865afa15801561010d573d6000803e3d6000fd5b505050506040513d601f19601f820116820180604052508101906101319190610671565b11610171576040517f08c379a0000000000000000000000000000000000000000000000000000000008152600401610168906106fb565b60405180910390fd5b8073ffffffffffffffffffffffffffffffffffffffff1663095ea7b38360006040518363ffffffff1660e01b81526004016101ad929190610760565b6020604051808303816000875af11580156101cc573d6000803e3d6000fd5b505050506040513d601f19601f820116820180604052508101906101f091906107c1565b61022f576040517f08c379a00000000000000000000000000000000000000000000000000000000081526004016102269061083a565b60405180910390fd5b8173ffffffffffffffffffffffffffffffffffffffff163373ffffffffffffffffffffffffffffffffffffffff168473ffffffffffffffffffffffffffffffffffffffff167f128311759eb518f0f0e09cd0432a36b7209f72c2452f680938715b57259ac0ea60006040516102a4919061085a565b60405180910390a4505050565b6000839050818173ffffffffffffffffffffffffffffffffffffffff166370a08231336040518263ffffffff1660e01b81526004016102f09190610875565b602060405180830381865afa15801561030d573d6000803e3d6000fd5b505050506040513d601f19601f820116820180604052508101906103319190610671565b1015610372576040517f08c379a0000000000000000000000000000000000000000000000000000000008152600401610369906108dc565b60405180910390fd5b8273ffffffffffffffffffffffffffffffffffffffff163373ffffffffffffffffffffffffffffffffffffffff168573ffffffffffffffffffffffffffffffffffffffff167f128311759eb518f0f0e09cd0432a36b7209f72c2452f680938715b57259ac0ea856040516103e69190610609565b60405180910390a450505050565b60008373ffffffffffffffffffffffffffffffffffffffff1663dd62ed3e84846040518363ffffffff1660e01b8152600401610431929190610633565b602060405180830381865afa15801561044e573d6000803e3d6000fd5b505050506040513d601f19601f820116820180604052508101906104729190610671565b90509392505050565b600080fd5b600073ffffffffffffffffffffffffffffffffffffffff82169050919050565b60006104ab82610480565b9050919050565b6104bb816104a0565b81146104c657600080fd5b50565b6000813590506104d8816104b2565b92915050565b600080604083850312156104f5576104f461047b565b5b6000610503858286016104c9565b9250506020610514858286016104c9565b9150509250929050565b6000819050919050565b6105318161051e565b811461053c57600080fd5b50565b60008135905061054e81610528565b92915050565b60008060006060848603121561056d5761056c61047b565b5b600061057b868287016104c9565b935050602061058c868287016104c9565b925050604061059d8682870161053f565b9150509250925092565b6000806000606084860312156105c0576105bf61047b565b5b60006105ce868287016104c9565b93505060206105df868287016104c9565b92505060406105f0868287016104c9565b9150509250925092565b6106038161051e565b82525050565b600060208201905061061e60008301846105fa565b92915050565b61062d816104a0565b82525050565b60006040820190506106486000830185610624565b6106556020830184610624565b9392505050565b60008151905061066b81610528565b92915050565b6000602082840312156106875761068661047b565b5b60006106958482850161065c565b91505092915050565b600082825260208201905092915050565b7f4e6f20616c6c6f77616e636520746f207265766f6b6500000000000000000000600082015250565b60006106e560168361069e565b91506106f0826106af565b602082019050919050565b60006020820190508181036000830152610714816106d8565b9050919050565b6000819050919050565b6000819050919050565b600061074a6107456107408461071b565b610725565b61051e565b9050919050565b61075a8161072f565b82525050565b60006040820190506107756000830185610624565b6107826020830184610751565b9392505050565b60008115159050919050565b61079e81610789565b81146107a957600080fd5b50565b6000815190506107bb81610795565b92915050565b6000602082840312156107d7576107d661047b565b5b60006107e5848285016107ac565b91505092915050565b7f417070726f76616c20726573657420746f2030206661696c6564000000000000600082015250565b6000610824601a8361069e565b915061082f826107ee565b602082019050919050565b6000602082019050818103600083015261085381610817565b9050919050565b600060208201905061086f6000830184610751565b92915050565b600060208201905061088a6000830184610624565b92915050565b7f496e73756666696369656e7420746f6b656e2062616c616e6365000000000000600082015250565b60006108c6601a8361069e565b91506108d182610890565b602082019050919050565b600060208201905081810360008301526108f5816108b9565b905091905056fea26469706673582212204bfb7a9b41a013876fe28985861c832f284b8212ab8ae279c1de5ff7bdb83d1364736f6c634300081c0033",
  "linkReferences": {},
  "deployedLinkReferences": {}
}